{
  "contractName": "Auction",
  "abi": [
    {
      "inputs": [
        {
          "internalType": "string",
          "name": "_itemName",
          "type": "string"
        },
        {
          "internalType": "uint256",
          "name": "_durationMinutes",
          "type": "uint256"
        },
        {
          "internalType": "uint256",
          "name": "_reservedPrice",
          "type": "uint256"
        },
        {
          "internalType": "uint256",
          "name": "_startTimestamp",
          "type": "uint256"
        },
        {
          "internalType": "address",
          "name": "_owner",
          "type": "address"
        }
      ],
      "stateMutability": "nonpayable",
      "type": "constructor"
    },
    {
      "anonymous": false,
      "inputs": [
        {
          "indexed": false,
          "internalType": "address",
          "name": "bidder",
          "type": "address"
        },
        {
          "indexed": false,
          "internalType": "uint256",
          "name": "amount",
          "type": "uint256"
        }
      ],
      "name": "Refund",
      "type": "event"
    },
    {
      "stateMutability": "payable",
      "type": "fallback"
    },
    {
      "inputs": [],
      "name": "auctionEndTime",
      "outputs": [
        {
          "internalType": "uint256",
          "name": "",
          "type": "uint256"
        }
      ],
      "stateMutability": "view",
      "type": "function"
    },
    {
      "inputs": [],
      "name": "auctionEnded",
      "outputs": [
        {
          "internalType": "bool",
          "name": "",
          "type": "bool"
        }
      ],
      "stateMutability": "view",
      "type": "function"
    },
    {
      "inputs": [],
      "name": "auctionStartTime",
      "outputs": [
        {
          "internalType": "uint256",
          "name": "",
          "type": "uint256"
        }
      ],
      "stateMutability": "view",
      "type": "function"
    },
    {
      "inputs": [
        {
          "internalType": "uint256",
          "name": "",
          "type": "uint256"
        }
      ],
      "name": "bidders",
      "outputs": [
        {
          "internalType": "address",
          "name": "",
          "type": "address"
        }
      ],
      "stateMutability": "view",
      "type": "function"
    },
    {
      "inputs": [
        {
          "internalType": "address",
          "name": "",
          "type": "address"
        }
      ],
      "name": "bids",
      "outputs": [
        {
          "internalType": "uint256",
          "name": "",
          "type": "uint256"
        }
      ],
      "stateMutability": "view",
      "type": "function"
    },
    {
      "inputs": [],
      "name": "highestBid",
      "outputs": [
        {
          "internalType": "uint256",
          "name": "",
          "type": "uint256"
        }
      ],
      "stateMutability": "view",
      "type": "function"
    },
    {
      "inputs": [],
      "name": "highestBidder",
      "outputs": [
        {
          "internalType": "address",
          "name": "",
          "type": "address"
        }
      ],
      "stateMutability": "view",
      "type": "function"
    },
    {
      "inputs": [],
      "name": "itemName",
      "outputs": [
        {
          "internalType": "string",
          "name": "",
          "type": "string"
        }
      ],
      "stateMutability": "view",
      "type": "function"
    },
    {
      "inputs": [],
      "name": "owner",
      "outputs": [
        {
          "internalType": "address",
          "name": "",
          "type": "address"
        }
      ],
      "stateMutability": "view",
      "type": "function"
    },
    {
      "inputs": [],
      "name": "reservedPrice",
      "outputs": [
        {
          "internalType": "uint256",
          "name": "",
          "type": "uint256"
        }
      ],
      "stateMutability": "view",
      "type": "function"
    },
    {
      "stateMutability": "payable",
      "type": "receive"
    },
    {
      "inputs": [],
      "name": "getBalance",
      "outputs": [
        {
          "internalType": "uint256",
          "name": "",
          "type": "uint256"
        }
      ],
      "stateMutability": "view",
      "type": "function"
    },
    {
      "inputs": [
        {
          "internalType": "address",
          "name": "bidder",
          "type": "address"
        }
      ],
      "name": "placeBid",
      "outputs": [],
      "stateMutability": "payable",
      "type": "function"
    },
    {
      "inputs": [],
      "name": "endAuction",
      "outputs": [],
      "stateMutability": "nonpayable",
      "type": "function"
    },
    {
      "inputs": [],
      "name": "hasBidders",
      "outputs": [
        {
          "internalType": "bool",
          "name": "",
          "type": "bool"
        }
      ],
      "stateMutability": "view",
      "type": "function"
    },
    {
      "inputs": [
        {
          "internalType": "uint256",
          "name": "index",
          "type": "uint256"
        }
      ],
      "name": "getBidderByIndex",
      "outputs": [
        {
          "internalType": "address",
          "name": "",
          "type": "address"
        }
      ],
      "stateMutability": "view",
      "type": "function"
    },
    {
      "inputs": [],
      "name": "getNumberOfBidders",
      "outputs": [
        {
          "internalType": "uint256",
          "name": "",
          "type": "uint256"
        }
      ],
      "stateMutability": "view",
      "type": "function"
    },
    {
      "inputs": [],
      "name": "getAuctionDetails",
      "outputs": [
        {
          "internalType": "string",
          "name": "",
          "type": "string"
        },
        {
          "internalType": "address",
          "name": "",
          "type": "address"
        },
        {
          "internalType": "uint256",
          "name": "",
          "type": "uint256"
        },
        {
          "internalType": "uint256",
          "name": "",
          "type": "uint256"
        },
        {
          "internalType": "uint256",
          "name": "",
          "type": "uint256"
        },
        {
          "internalType": "address",
          "name": "",
          "type": "address"
        },
        {
          "internalType": "bool",
          "name": "",
          "type": "bool"
        }
      ],
      "stateMutability": "view",
      "type": "function"
    }
  ],
  "bytecode": "0x60806040523480156200001157600080fd5b50604051620019dc380380620019dc833981810160405281019062000037919062000258565b600073ffffffffffffffffffffffffffffffffffffffff168173ffffffffffffffffffffffffffffffffffffffff161462000073578062000075565b335b6000806101000a81548173ffffffffffffffffffffffffffffffffffffffff021916908373ffffffffffffffffffffffffffffffffffffffff16021790555081600281905550603c84620000ca9190620003b7565b82620000d791906200035a565b6001819055508460039080519060200190620000f592919062000108565b5082600681905550505050505062000583565b82805462000116906200048c565b90600052602060002090601f0160209004810192826200013a576000855562000186565b82601f106200015557805160ff191683800117855562000186565b8280016001018555821562000186579182015b828111156200018557825182559160200191906001019062000168565b5b50905062000195919062000199565b5090565b5b80821115620001b45760008160009055506001016200019a565b5090565b6000620001cf620001c98462000327565b620002f3565b905082815260208101848484011115620001e857600080fd5b620001f584828562000456565b509392505050565b6000815190506200020e816200054f565b92915050565b600082601f8301126200022657600080fd5b815162000238848260208601620001b8565b91505092915050565b600081519050620002528162000569565b92915050565b600080600080600060a086880312156200027157600080fd5b600086015167ffffffffffffffff8111156200028c57600080fd5b6200029a8882890162000214565b9550506020620002ad8882890162000241565b9450506040620002c08882890162000241565b9350506060620002d38882890162000241565b9250506080620002e688828901620001fd565b9150509295509295909350565b6000604051905081810181811067ffffffffffffffff821117156200031d576200031c62000520565b5b8060405250919050565b600067ffffffffffffffff82111562000345576200034462000520565b5b601f19601f8301169050602081019050919050565b600062000367826200044c565b915062000374836200044c565b9250827fffffffffffffffffffffffffffffffffffffffffffffffffffffffffffffffff03821115620003ac57620003ab620004c2565b5b828201905092915050565b6000620003c4826200044c565b9150620003d1836200044c565b9250817fffffffffffffffffffffffffffffffffffffffffffffffffffffffffffffffff04831182151516156200040d576200040c620004c2565b5b828202905092915050565b600062000425826200042c565b9050919050565b600073ffffffffffffffffffffffffffffffffffffffff82169050919050565b6000819050919050565b60005b838110156200047657808201518184015260208101905062000459565b8381111562000486576000848401525b50505050565b60006002820490506001821680620004a557607f821691505b60208210811415620004bc57620004bb620004f1565b5b50919050565b7f4e487b7100000000000000000000000000000000000000000000000000000000600052601160045260246000fd5b7f4e487b7100000000000000000000000000000000000000000000000000000000600052602260045260246000fd5b7f4e487b7100000000000000000000000000000000000000000000000000000000600052604160045260246000fd5b6200055a8162000418565b81146200056657600080fd5b50565b62000574816200044c565b81146200058057600080fd5b50565b61144980620005936000396000f3fe6080604052600436106101025760003560e01c80638da5cb5b11610095578063d57bde7911610064578063d57bde791461034b578063e494015714610376578063e94c05f514610392578063eb54f9ec146103bd578063fe67a54b146103e857610109565b80638da5cb5b1461028d57806391f90157146102b8578063b6c84254146102e3578063cff29dfd1461030e57610109565b80634b449cba116100d15780634b449cba146101bd578063551a50ad146101e857806362ea82db14610225578063864333741461026257610109565b806312065fe01461010b5780631b55d216146101365780633a6dcea21461016157806340401fea1461019257610109565b3661010957005b005b34801561011757600080fd5b506101206103ff565b60405161012d91906111f3565b60405180910390f35b34801561014257600080fd5b5061014b610407565b60405161015891906111f3565b60405180910390f35b34801561016d57600080fd5b5061017661040d565b60405161018997969594939291906110bd565b60405180910390f35b34801561019e57600080fd5b506101a761051a565b6040516101b4919061109b565b60405180910390f35b3480156101c957600080fd5b506101d26105a8565b6040516101df91906111f3565b60405180910390f35b3480156101f457600080fd5b5061020f600480360381019061020a9190610e07565b6105ae565b60405161021c919061103c565b60405180910390f35b34801561023157600080fd5b5061024c60048036038101906102479190610dde565b610663565b60405161025991906111f3565b60405180910390f35b34801561026e57600080fd5b5061027761067b565b6040516102849190611080565b60405180910390f35b34801561029957600080fd5b506102a261068e565b6040516102af919061103c565b60405180910390f35b3480156102c457600080fd5b506102cd6106b2565b6040516102da919061103c565b60405180910390f35b3480156102ef57600080fd5b506102f86106d8565b6040516103059190611080565b60405180910390f35b34801561031a57600080fd5b5061033560048036038101906103309190610e07565b6106e7565b604051610342919061103c565b60405180910390f35b34801561035757600080fd5b50610360610726565b60405161036d91906111f3565b60405180910390f35b610390600480360381019061038b9190610dde565b61072c565b005b34801561039e57600080fd5b506103a7610a65565b6040516103b491906111f3565b60405180910390f35b3480156103c957600080fd5b506103d2610a72565b6040516103df91906111f3565b60405180910390f35b3480156103f457600080fd5b506103fd610a78565b005b600047905090565b60065481565b6060600080600080600080600360008054906101000a900473ffffffffffffffffffffffffffffffffffffffff16600254600154600454600560009054906101000a900473ffffffffffffffffffffffffffffffffffffffff16600560149054906101000a900460ff16868054610483906112fb565b80601f01602080910402602001604051908101604052809291908181526020018280546104af906112fb565b80156104fc5780601f106104d1576101008083540402835291602001916104fc565b820191906000526020600020905b8154815290600101906020018083116104df57829003601f168201915b50505050509650965096509650965096509650965090919293949596565b60038054610527906112fb565b80601f0160208091040260200160405190810160405280929190818152602001828054610553906112fb565b80156105a05780601f10610575576101008083540402835291602001916105a0565b820191906000526020600020905b81548152906001019060200180831161058357829003601f168201915b505050505081565b60015481565b600060088054905082106105f7576040517f08c379a00000000000000000000000000000000000000000000000000000000081526004016105ee906111d3565b60405180910390fd5b60088281548110610631577f4e487b7100000000000000000000000000000000000000000000000000000000600052603260045260246000fd5b9060005260206000200160009054906101000a900473ffffffffffffffffffffffffffffffffffffffff169050919050565b60076020528060005260406000206000915090505481565b600560149054906101000a900460ff1681565b60008054906101000a900473ffffffffffffffffffffffffffffffffffffffff1681565b600560009054906101000a900473ffffffffffffffffffffffffffffffffffffffff1681565b60008060088054905011905090565b600881815481106106f757600080fd5b906000526020600020016000915054906101000a900473ffffffffffffffffffffffffffffffffffffffff1681565b60045481565b600254421015610771576040517f08c379a000000000000000000000000000000000000000000000000000000000815260040161076890611193565b60405180910390fd5b600560149054906101000a900460ff16156107c1576040517f08c379a00000000000000000000000000000000000000000000000000000000081526004016107b890611153565b60405180910390fd5b6001544210610805576040517f08c379a00000000000000000000000000000000000000000000000000000000081526004016107fc90611173565b60405180910390fd5b60008054906101000a900473ffffffffffffffffffffffffffffffffffffffff1673ffffffffffffffffffffffffffffffffffffffff163373ffffffffffffffffffffffffffffffffffffffff161415610894576040517f08c379a000000000000000000000000000000000000000000000000000000000815260040161088b90611133565b60405180910390fd5b60065434116108d8576040517f08c379a00000000000000000000000000000000000000000000000000000000081526004016108cf906111b3565b60405180910390fd5b34600760008373ffffffffffffffffffffffffffffffffffffffff1673ffffffffffffffffffffffffffffffffffffffff1681526020019081526020016000206000828254610927919061122a565b925050819055506008819080600181540180825580915050600190039060005260206000200160009091909190916101000a81548173ffffffffffffffffffffffffffffffffffffffff021916908373ffffffffffffffffffffffffffffffffffffffff160217905550600454600760008373ffffffffffffffffffffffffffffffffffffffff1673ffffffffffffffffffffffffffffffffffffffff168152602001908152602001600020541115610a6257600760008273ffffffffffffffffffffffffffffffffffffffff1673ffffffffffffffffffffffffffffffffffffffff1681526020019081526020016000205460048190555080600560006101000a81548173ffffffffffffffffffffffffffffffffffffffff021916908373ffffffffffffffffffffffffffffffffffffffff1602179055505b50565b6000600880549050905090565b60025481565b600560149054906101000a900460ff1615610ac8576040517f08c379a0000000000000000000000000000000000000000000000000000000008152600401610abf90611153565b60405180910390fd5b6001600560146101000a81548160ff02191690831515021790555060005b600880549050811015610db157600560009054906101000a900473ffffffffffffffffffffffffffffffffffffffff1673ffffffffffffffffffffffffffffffffffffffff1660088281548110610b66577f4e487b7100000000000000000000000000000000000000000000000000000000600052603260045260246000fd5b9060005260206000200160009054906101000a900473ffffffffffffffffffffffffffffffffffffffff1673ffffffffffffffffffffffffffffffffffffffff1614610d9e5760006007600060088481548110610bec577f4e487b7100000000000000000000000000000000000000000000000000000000600052603260045260246000fd5b9060005260206000200160009054906101000a900473ffffffffffffffffffffffffffffffffffffffff1673ffffffffffffffffffffffffffffffffffffffff1673ffffffffffffffffffffffffffffffffffffffff16815260200190815260200160002054905060088281548110610c8e577f4e487b7100000000000000000000000000000000000000000000000000000000600052603260045260246000fd5b9060005260206000200160009054906101000a900473ffffffffffffffffffffffffffffffffffffffff1673ffffffffffffffffffffffffffffffffffffffff166108fc829081150290604051600060405180830381858888f19350505050158015610cfe573d6000803e3d6000fd5b507fbb28353e4598c3b9199101a66e0989549b659a59a54d2c27fbb183f1932c8e6d60088381548110610d5a577f4e487b7100000000000000000000000000000000000000000000000000000000600052603260045260246000fd5b9060005260206000200160009054906101000a900473ffffffffffffffffffffffffffffffffffffffff1682604051610d94929190611057565b60405180910390a1505b8080610da99061132d565b915050610ae6565b50565b600081359050610dc3816113e5565b92915050565b600081359050610dd8816113fc565b92915050565b600060208284031215610df057600080fd5b6000610dfe84828501610db4565b91505092915050565b600060208284031215610e1957600080fd5b6000610e2784828501610dc9565b91505092915050565b610e3981611280565b82525050565b610e4881611292565b82525050565b6000610e598261120e565b610e638185611219565b9350610e738185602086016112c8565b610e7c816113d4565b840191505092915050565b6000610e94601883611219565b91507f4f776e65722063616e6e6f7420706c61636520612062696400000000000000006000830152602082019050919050565b6000610ed4601983611219565b91507f41756374696f6e2068617320616c726561647920656e646564000000000000006000830152602082019050919050565b6000610f14601183611219565b91507f41756374696f6e2068617320656e6465640000000000000000000000000000006000830152602082019050919050565b6000610f54601b83611219565b91507f41756374696f6e20686173206e6f7420737461727465642079657400000000006000830152602082019050919050565b6000610f94602b83611219565b91507f426964206d75737420626520686967686572207468616e20746865207265736560008301527f727665642070726963652e0000000000000000000000000000000000000000006020830152604082019050919050565b6000610ffa601383611219565b91507f496e646578206f7574206f6620626f756e6473000000000000000000000000006000830152602082019050919050565b611036816112be565b82525050565b60006020820190506110516000830184610e30565b92915050565b600060408201905061106c6000830185610e30565b611079602083018461102d565b9392505050565b60006020820190506110956000830184610e3f565b92915050565b600060208201905081810360008301526110b58184610e4e565b905092915050565b600060e08201905081810360008301526110d7818a610e4e565b90506110e66020830189610e30565b6110f3604083018861102d565b611100606083018761102d565b61110d608083018661102d565b61111a60a0830185610e30565b61112760c0830184610e3f565b98975050505050505050565b6000602082019050818103600083015261114c81610e87565b9050919050565b6000602082019050818103600083015261116c81610ec7565b9050919050565b6000602082019050818103600083015261118c81610f07565b9050919050565b600060208201905081810360008301526111ac81610f47565b9050919050565b600060208201905081810360008301526111cc81610f87565b9050919050565b600060208201905081810360008301526111ec81610fed565b9050919050565b6000602082019050611208600083018461102d565b92915050565b600081519050919050565b600082825260208201905092915050565b6000611235826112be565b9150611240836112be565b9250827fffffffffffffffffffffffffffffffffffffffffffffffffffffffffffffffff0382111561127557611274611376565b5b828201905092915050565b600061128b8261129e565b9050919050565b60008115159050919050565b600073ffffffffffffffffffffffffffffffffffffffff82169050919050565b6000819050919050565b60005b838110156112e65780820151818401526020810190506112cb565b838111156112f5576000848401525b50505050565b6000600282049050600182168061131357607f821691505b60208210811415611327576113266113a5565b5b50919050565b6000611338826112be565b91507fffffffffffffffffffffffffffffffffffffffffffffffffffffffffffffffff82141561136b5761136a611376565b5b600182019050919050565b7f4e487b7100000000000000000000000000000000000000000000000000000000600052601160045260246000fd5b7f4e487b7100000000000000000000000000000000000000000000000000000000600052602260045260246000fd5b6000601f19601f8301169050919050565b6113ee81611280565b81146113f957600080fd5b50565b611405816112be565b811461141057600080fd5b5056fea26469706673582212206b900dab5e4381fcd1355d4baa31eefb94b5d1ec3d2fc11431b03e5a4b2668e764736f6c63430008000033",
  "immutableReferences": {},
  "source": "// SPDX-License-Identifier: MIT\r\npragma solidity ^0.8.0;\r\n\r\ncontract Auction {\r\n    address public owner;\r\n    uint256 public auctionEndTime;\r\n    uint256 public auctionStartTime;\r\n    string public itemName;\r\n    uint256 public highestBid;\r\n    address public highestBidder;\r\n    bool public auctionEnded;\r\n    uint256 public reservedPrice;\r\n\r\n    //event\r\n    event Refund(address bidder, uint256 amount);\r\n\r\n    // New mapping to keep track of all bidders and their bids\r\n    mapping(address => uint256) public bids;\r\n    address[] public bidders;\r\n\r\n    constructor(string memory _itemName, uint256 _durationMinutes, uint256 _reservedPrice, uint256 _startTimestamp, address _owner) {\r\n        owner = _owner == address(0) ? msg.sender : _owner;\r\n        auctionStartTime = _startTimestamp;\r\n        auctionEndTime = _startTimestamp + (_durationMinutes * 1 minutes);\r\n        itemName = _itemName;\r\n        reservedPrice = _reservedPrice; // Initialize reserved price\r\n    }\r\n\r\n    // Function to receive Ether. msg.data must be empty\r\n    receive() external payable {}\r\n\r\n    // Fallback function is called when msg.data is not empty\r\n    fallback() external payable {}\r\n\r\n    // Function to retrieve the balance of the contract\r\n    function getBalance() public view returns (uint) {\r\n        return address(this).balance;\r\n    }\r\n\r\n    modifier notOwner() {\r\n        require(msg.sender != owner, \"Owner cannot place a bid\");\r\n        _;\r\n    }\r\n\r\n    modifier onlyOwner() {\r\n        require(msg.sender == owner, \"Only the owner can perform this action\");\r\n        _;\r\n    }\r\n\r\n    modifier onlyBeforeEnd() {\r\n        require(!auctionEnded, \"Auction has already ended\");\r\n        require(block.timestamp < auctionEndTime, \"Auction has ended\");\r\n        _;\r\n    }\r\n\r\n    // Modify existing functions to check for start time\r\n    modifier onlyAfterStart() {\r\n        require(block.timestamp >= auctionStartTime, \"Auction has not started yet\");\r\n        _;\r\n    }\r\n\r\n    modifier onlyAfterEnd() {\r\n        require(auctionEnded || block.timestamp >= auctionEndTime, \"Auction is still ongoing\");\r\n        _;\r\n    }\r\n\r\n    function placeBid(address bidder) public payable onlyAfterStart onlyBeforeEnd notOwner {\r\n        require(msg.value > reservedPrice, \"Bid must be higher than the reserved price.\");\r\n\r\n        // if (highestBidder != address(0)) {\r\n        //     // Refund the previous highest bidder\r\n        //     payable(highestBidder).transfer(highestBid);\r\n        // }\r\n\r\n        //bids[msg.sender] += msg.value;  // Add bid to sender's total\r\n        //bidders.push(msg.sender);  // Add sender to bidders array\r\n        // Check if it's a new highest bid\r\n        // if (bids[msg.sender] > highestBid) {\r\n        //     highestBid = bids[msg.sender];\r\n        //     highestBidder = msg.sender;\r\n        // }\r\n        bids[bidder] += msg.value;\r\n        bidders.push(bidder);       \r\n        \r\n        if (bids[bidder] > highestBid) {\r\n            highestBid = bids[bidder];\r\n            highestBidder = bidder;\r\n        }\r\n        // highestBid = msg.value;\r\n        // highestBidder = msg.sender;\r\n    }\r\n\r\n    // Function to end the auction and disperse funds\r\n    function endAuction() public {\r\n        require(!auctionEnded, \"Auction has already ended\");\r\n        auctionEnded = true;\r\n        // Disperse funds to non-winning bidders\r\n        for (uint i = 0; i < bidders.length; i++) {\r\n            if (bidders[i] != highestBidder) {\r\n                uint256 refundAmount = bids[bidders[i]];\r\n                payable(bidders[i]).transfer(refundAmount);\r\n                emit Refund(bidders[i], refundAmount); // Diagnostic event\r\n            }\r\n        }\r\n        // if (highestBidder != address(0)) {\r\n        //     // Transfer the item to the highest bidder\r\n        //     // You can implement your item transfer logic here\r\n        // }\r\n    }\r\n\r\n    function hasBidders() public view returns (bool) {\r\n        return bidders.length > 0;\r\n    }\r\n\r\n    function getBidderByIndex(uint index) public view returns (address) {\r\n        require(index < bidders.length, \"Index out of bounds\");\r\n        return bidders[index];\r\n    }\r\n\r\n    function getNumberOfBidders() public view returns (uint) {\r\n        return bidders.length;\r\n    }\r\n\r\n    function getAuctionDetails() public view returns (\r\n        string memory,\r\n        address,\r\n        uint256,\r\n        uint256,\r\n        uint256,\r\n        address,\r\n        bool\r\n    ) {\r\n        return (itemName, owner, auctionStartTime, auctionEndTime, highestBid, highestBidder, auctionEnded);\r\n    }\r\n}",
  "sourcePath": "C:\\Users\\ASUS\\OneDrive - Asia Pacific University\\FYP\\FYP Visual Studio\\Loh Yuen Wei_TP063508_FYP_P2P Lending Platform\\contracts\\Auction.sol",
  "compiler": {
    "name": "solc",
    "version": "0.8.0+commit.c7dfd78e.Emscripten.clang"
  },
  "schemaVersion": "3.4.16",
  "updatedAt": "2024-01-10T08:27:01.159Z",
  "devdoc": {
    "kind": "dev",
    "methods": {},
    "version": 1
  },
  "userdoc": {
    "kind": "user",
    "methods": {},
    "version": 1
  }
}