{
  "contractName": "AuctionManager",
  "abi": [
    {
      "anonymous": false,
      "inputs": [
        {
          "indexed": true,
          "internalType": "address",
          "name": "owner",
          "type": "address"
        },
        {
          "indexed": false,
          "internalType": "contract Auction",
          "name": "auction",
          "type": "address"
        },
        {
          "indexed": true,
          "internalType": "address",
          "name": "auctionAddress",
          "type": "address"
        }
      ],
      "name": "AuctionCreated",
      "type": "event"
    },
    {
      "anonymous": false,
      "inputs": [
        {
          "indexed": true,
          "internalType": "address",
          "name": "owner",
          "type": "address"
        },
        {
          "indexed": false,
          "internalType": "contract Auction",
          "name": "auction",
          "type": "address"
        }
      ],
      "name": "AuctionEnded",
      "type": "event"
    },
    {
      "anonymous": false,
      "inputs": [
        {
          "indexed": true,
          "internalType": "address",
          "name": "bidder",
          "type": "address"
        },
        {
          "indexed": true,
          "internalType": "address",
          "name": "auction",
          "type": "address"
        },
        {
          "indexed": false,
          "internalType": "uint256",
          "name": "amount",
          "type": "uint256"
        }
      ],
      "name": "BidPlaced",
      "type": "event"
    },
    {
      "inputs": [
        {
          "internalType": "uint256",
          "name": "",
          "type": "uint256"
        }
      ],
      "name": "allAuctions",
      "outputs": [
        {
          "internalType": "contract Auction",
          "name": "",
          "type": "address"
        }
      ],
      "stateMutability": "view",
      "type": "function"
    },
    {
      "inputs": [
        {
          "internalType": "address",
          "name": "",
          "type": "address"
        },
        {
          "internalType": "uint256",
          "name": "",
          "type": "uint256"
        }
      ],
      "name": "auctions",
      "outputs": [
        {
          "internalType": "contract Auction",
          "name": "",
          "type": "address"
        }
      ],
      "stateMutability": "view",
      "type": "function"
    },
    {
      "inputs": [
        {
          "internalType": "string",
          "name": "_itemName",
          "type": "string"
        },
        {
          "internalType": "uint256",
          "name": "_durationMinutes",
          "type": "uint256"
        },
        {
          "internalType": "uint256",
          "name": "_reservedPrice",
          "type": "uint256"
        },
        {
          "internalType": "uint256",
          "name": "_startTimestamp",
          "type": "uint256"
        }
      ],
      "name": "createAuction",
      "outputs": [],
      "stateMutability": "nonpayable",
      "type": "function"
    },
    {
      "inputs": [
        {
          "internalType": "address",
          "name": "owner",
          "type": "address"
        }
      ],
      "name": "getAuctions",
      "outputs": [
        {
          "internalType": "contract Auction[]",
          "name": "",
          "type": "address[]"
        }
      ],
      "stateMutability": "view",
      "type": "function"
    },
    {
      "inputs": [
        {
          "internalType": "contract Auction",
          "name": "auction",
          "type": "address"
        }
      ],
      "name": "endAuction",
      "outputs": [],
      "stateMutability": "nonpayable",
      "type": "function"
    },
    {
      "inputs": [],
      "name": "getAllAuctions",
      "outputs": [
        {
          "internalType": "contract Auction[]",
          "name": "",
          "type": "address[]"
        }
      ],
      "stateMutability": "view",
      "type": "function"
    },
    {
      "inputs": [
        {
          "internalType": "contract Auction",
          "name": "auction",
          "type": "address"
        },
        {
          "internalType": "uint256",
          "name": "amount",
          "type": "uint256"
        }
      ],
      "name": "placeBidOnAuction",
      "outputs": [],
      "stateMutability": "payable",
      "type": "function"
    },
    {
      "inputs": [
        {
          "internalType": "contract Auction",
          "name": "auction",
          "type": "address"
        }
      ],
      "name": "auctionHasBidders",
      "outputs": [
        {
          "internalType": "bool",
          "name": "",
          "type": "bool"
        }
      ],
      "stateMutability": "view",
      "type": "function"
    }
  ],
  "bytecode": "0x608060405234801561001057600080fd5b50612902806100206000396000f3fe608060405260043610620000865760003560e01c80634e46373411620000555780634e4637341462000161578063cbd2bdfd146200018f578063e277f12214620001bf578063fb0f936314620002035762000086565b8063165c5881146200008b5780632872abbc14620000cf57806344f91c1e14620000fd5780634badb1ec1462000141575b600080fd5b3480156200009857600080fd5b50620000b76004803603810190620000b1919062000a6b565b62000247565b604051620000c6919062000c0f565b60405180910390f35b348015620000dc57600080fd5b50620000fb6004803603810190620000f5919062000979565b62000287565b005b3480156200010a57600080fd5b506200012960048036038101906200012391906200090c565b6200033c565b60405162000138919062000c0f565b60405180910390f35b6200015f6004803603810190620001599190620009a5565b6200038b565b005b3480156200016e57600080fd5b506200018d6004803603810190620001879190620009e6565b62000466565b005b3480156200019c57600080fd5b50620001a76200061b565b604051620001b6919062000bce565b60405180910390f35b348015620001cc57600080fd5b50620001eb6004803603810190620001e5919062000979565b620006ab565b604051620001fa919062000bf2565b60405180910390f35b3480156200021057600080fd5b506200022f6004803603810190620002299190620008e0565b62000736565b6040516200023e919062000bce565b60405180910390f35b600181815481106200025857600080fd5b906000526020600020016000915054906101000a900473ffffffffffffffffffffffffffffffffffffffff1681565b8073ffffffffffffffffffffffffffffffffffffffff1663fe67a54b6040518163ffffffff1660e01b8152600401600060405180830381600087803b158015620002d057600080fd5b505af1158015620002e5573d6000803e3d6000fd5b505050503373ffffffffffffffffffffffffffffffffffffffff167f6387d7b83b66962ed4b5c776ba960eb98a5afed1646acb4d3624a7256dabf4fa8260405162000331919062000c0f565b60405180910390a250565b600060205281600052604060002081815481106200035957600080fd5b906000526020600020016000915091509054906101000a900473ffffffffffffffffffffffffffffffffffffffff1681565b8173ffffffffffffffffffffffffffffffffffffffff1663e494015782336040518363ffffffff1660e01b8152600401620003c7919062000bb1565b6000604051808303818588803b158015620003e157600080fd5b505af1158015620003f6573d6000803e3d6000fd5b50505050508173ffffffffffffffffffffffffffffffffffffffff163373ffffffffffffffffffffffffffffffffffffffff167f45a818213e5085f9a2d24b876128d3bb9f7200bcf3170fa08e063e1746f7e9bb836040516200045a919062000c90565b60405180910390a35050565b600084848484336040516200047b9062000804565b6200048b95949392919062000c2c565b604051809103906000f080158015620004a8573d6000803e3d6000fd5b5090506000803373ffffffffffffffffffffffffffffffffffffffff1673ffffffffffffffffffffffffffffffffffffffff168152602001908152602001600020819080600181540180825580915050600190039060005260206000200160009091909190916101000a81548173ffffffffffffffffffffffffffffffffffffffff021916908373ffffffffffffffffffffffffffffffffffffffff1602179055506001819080600181540180825580915050600190039060005260206000200160009091909190916101000a81548173ffffffffffffffffffffffffffffffffffffffff021916908373ffffffffffffffffffffffffffffffffffffffff1602179055508073ffffffffffffffffffffffffffffffffffffffff163373ffffffffffffffffffffffffffffffffffffffff167f0e87f8cafb4bf66469b7827472c74c529bcb902261be5cd36e4b3dfcbc4ed07f836040516200060c919062000c0f565b60405180910390a35050505050565b60606001805480602002602001604051908101604052809291908181526020018280548015620006a157602002820191906000526020600020905b8160009054906101000a900473ffffffffffffffffffffffffffffffffffffffff1673ffffffffffffffffffffffffffffffffffffffff168152602001906001019080831162000656575b5050505050905090565b60008173ffffffffffffffffffffffffffffffffffffffff1663b6c842546040518163ffffffff1660e01b815260040160206040518083038186803b158015620006f457600080fd5b505afa15801562000709573d6000803e3d6000fd5b505050506040513d601f19601f820116820180604052508101906200072f91906200094d565b9050919050565b60606000808373ffffffffffffffffffffffffffffffffffffffff1673ffffffffffffffffffffffffffffffffffffffff168152602001908152602001600020805480602002602001604051908101604052809291908181526020018280548015620007f857602002820191906000526020600020905b8160009054906101000a900473ffffffffffffffffffffffffffffffffffffffff1673ffffffffffffffffffffffffffffffffffffffff1681526020019060010190808311620007ad575b50505050509050919050565b6119dc8062000ef183390190565b600062000829620008238462000ce1565b62000cad565b9050828152602081018484840111156200084257600080fd5b6200084f84828562000e03565b509392505050565b600081359050620008688162000e88565b92915050565b6000815190506200087f8162000ea2565b92915050565b600081359050620008968162000ebc565b92915050565b600082601f830112620008ae57600080fd5b8135620008c084826020860162000812565b91505092915050565b600081359050620008da8162000ed6565b92915050565b600060208284031215620008f357600080fd5b6000620009038482850162000857565b91505092915050565b600080604083850312156200092057600080fd5b6000620009308582860162000857565b92505060206200094385828601620008c9565b9150509250929050565b6000602082840312156200096057600080fd5b600062000970848285016200086e565b91505092915050565b6000602082840312156200098c57600080fd5b60006200099c8482850162000885565b91505092915050565b60008060408385031215620009b957600080fd5b6000620009c98582860162000885565b9250506020620009dc85828601620008c9565b9150509250929050565b60008060008060808587031215620009fd57600080fd5b600085013567ffffffffffffffff81111562000a1857600080fd5b62000a26878288016200089c565b945050602062000a3987828801620008c9565b935050604062000a4c87828801620008c9565b925050606062000a5f87828801620008c9565b91505092959194509250565b60006020828403121562000a7e57600080fd5b600062000a8e84828501620008c9565b91505092915050565b600062000aa5838362000b3d565b60208301905092915050565b62000abc8162000d69565b82525050565b600062000acf8262000d24565b62000adb818562000d47565b935062000ae88362000d14565b8060005b8381101562000b1f57815162000b03888262000a97565b975062000b108362000d3a565b92505060018101905062000aec565b5085935050505092915050565b62000b378162000d91565b82525050565b62000b488162000ddb565b82525050565b62000b598162000ddb565b82525050565b600062000b6c8262000d2f565b62000b78818562000d58565b935062000b8a81856020860162000e12565b62000b958162000e77565b840191505092915050565b62000bab8162000dd1565b82525050565b600060208201905062000bc8600083018462000ab1565b92915050565b6000602082019050818103600083015262000bea818462000ac2565b905092915050565b600060208201905062000c09600083018462000b2c565b92915050565b600060208201905062000c26600083018462000b4e565b92915050565b600060a082019050818103600083015262000c48818862000b5f565b905062000c59602083018762000ba0565b62000c68604083018662000ba0565b62000c77606083018562000ba0565b62000c86608083018462000ab1565b9695505050505050565b600060208201905062000ca7600083018462000ba0565b92915050565b6000604051905081810181811067ffffffffffffffff8211171562000cd75762000cd662000e48565b5b8060405250919050565b600067ffffffffffffffff82111562000cff5762000cfe62000e48565b5b601f19601f8301169050602081019050919050565b6000819050602082019050919050565b600081519050919050565b600081519050919050565b6000602082019050919050565b600082825260208201905092915050565b600082825260208201905092915050565b600062000d768262000db1565b9050919050565b600062000d8a8262000db1565b9050919050565b60008115159050919050565b600062000daa8262000d7d565b9050919050565b600073ffffffffffffffffffffffffffffffffffffffff82169050919050565b6000819050919050565b600062000de88262000def565b9050919050565b600062000dfc8262000db1565b9050919050565b82818337600083830152505050565b60005b8381101562000e3257808201518184015260208101905062000e15565b8381111562000e42576000848401525b50505050565b7f4e487b7100000000000000000000000000000000000000000000000000000000600052604160045260246000fd5b6000601f19601f8301169050919050565b62000e938162000d69565b811462000e9f57600080fd5b50565b62000ead8162000d91565b811462000eb957600080fd5b50565b62000ec78162000d9d565b811462000ed357600080fd5b50565b62000ee18162000dd1565b811462000eed57600080fd5b5056fe60806040523480156200001157600080fd5b50604051620019dc380380620019dc833981810160405281019062000037919062000258565b600073ffffffffffffffffffffffffffffffffffffffff168173ffffffffffffffffffffffffffffffffffffffff161462000073578062000075565b335b6000806101000a81548173ffffffffffffffffffffffffffffffffffffffff021916908373ffffffffffffffffffffffffffffffffffffffff16021790555081600281905550603c84620000ca9190620003b7565b82620000d791906200035a565b6001819055508460039080519060200190620000f592919062000108565b5082600681905550505050505062000583565b82805462000116906200048c565b90600052602060002090601f0160209004810192826200013a576000855562000186565b82601f106200015557805160ff191683800117855562000186565b8280016001018555821562000186579182015b828111156200018557825182559160200191906001019062000168565b5b50905062000195919062000199565b5090565b5b80821115620001b45760008160009055506001016200019a565b5090565b6000620001cf620001c98462000327565b620002f3565b905082815260208101848484011115620001e857600080fd5b620001f584828562000456565b509392505050565b6000815190506200020e816200054f565b92915050565b600082601f8301126200022657600080fd5b815162000238848260208601620001b8565b91505092915050565b600081519050620002528162000569565b92915050565b600080600080600060a086880312156200027157600080fd5b600086015167ffffffffffffffff8111156200028c57600080fd5b6200029a8882890162000214565b9550506020620002ad8882890162000241565b9450506040620002c08882890162000241565b9350506060620002d38882890162000241565b9250506080620002e688828901620001fd565b9150509295509295909350565b6000604051905081810181811067ffffffffffffffff821117156200031d576200031c62000520565b5b8060405250919050565b600067ffffffffffffffff82111562000345576200034462000520565b5b601f19601f8301169050602081019050919050565b600062000367826200044c565b915062000374836200044c565b9250827fffffffffffffffffffffffffffffffffffffffffffffffffffffffffffffffff03821115620003ac57620003ab620004c2565b5b828201905092915050565b6000620003c4826200044c565b9150620003d1836200044c565b9250817fffffffffffffffffffffffffffffffffffffffffffffffffffffffffffffffff04831182151516156200040d576200040c620004c2565b5b828202905092915050565b600062000425826200042c565b9050919050565b600073ffffffffffffffffffffffffffffffffffffffff82169050919050565b6000819050919050565b60005b838110156200047657808201518184015260208101905062000459565b8381111562000486576000848401525b50505050565b60006002820490506001821680620004a557607f821691505b60208210811415620004bc57620004bb620004f1565b5b50919050565b7f4e487b7100000000000000000000000000000000000000000000000000000000600052601160045260246000fd5b7f4e487b7100000000000000000000000000000000000000000000000000000000600052602260045260246000fd5b7f4e487b7100000000000000000000000000000000000000000000000000000000600052604160045260246000fd5b6200055a8162000418565b81146200056657600080fd5b50565b62000574816200044c565b81146200058057600080fd5b50565b61144980620005936000396000f3fe6080604052600436106101025760003560e01c80638da5cb5b11610095578063d57bde7911610064578063d57bde791461034b578063e494015714610376578063e94c05f514610392578063eb54f9ec146103bd578063fe67a54b146103e857610109565b80638da5cb5b1461028d57806391f90157146102b8578063b6c84254146102e3578063cff29dfd1461030e57610109565b80634b449cba116100d15780634b449cba146101bd578063551a50ad146101e857806362ea82db14610225578063864333741461026257610109565b806312065fe01461010b5780631b55d216146101365780633a6dcea21461016157806340401fea1461019257610109565b3661010957005b005b34801561011757600080fd5b506101206103ff565b60405161012d91906111f3565b60405180910390f35b34801561014257600080fd5b5061014b610407565b60405161015891906111f3565b60405180910390f35b34801561016d57600080fd5b5061017661040d565b60405161018997969594939291906110bd565b60405180910390f35b34801561019e57600080fd5b506101a761051a565b6040516101b4919061109b565b60405180910390f35b3480156101c957600080fd5b506101d26105a8565b6040516101df91906111f3565b60405180910390f35b3480156101f457600080fd5b5061020f600480360381019061020a9190610e07565b6105ae565b60405161021c919061103c565b60405180910390f35b34801561023157600080fd5b5061024c60048036038101906102479190610dde565b610663565b60405161025991906111f3565b60405180910390f35b34801561026e57600080fd5b5061027761067b565b6040516102849190611080565b60405180910390f35b34801561029957600080fd5b506102a261068e565b6040516102af919061103c565b60405180910390f35b3480156102c457600080fd5b506102cd6106b2565b6040516102da919061103c565b60405180910390f35b3480156102ef57600080fd5b506102f86106d8565b6040516103059190611080565b60405180910390f35b34801561031a57600080fd5b5061033560048036038101906103309190610e07565b6106e7565b604051610342919061103c565b60405180910390f35b34801561035757600080fd5b50610360610726565b60405161036d91906111f3565b60405180910390f35b610390600480360381019061038b9190610dde565b61072c565b005b34801561039e57600080fd5b506103a7610a65565b6040516103b491906111f3565b60405180910390f35b3480156103c957600080fd5b506103d2610a72565b6040516103df91906111f3565b60405180910390f35b3480156103f457600080fd5b506103fd610a78565b005b600047905090565b60065481565b6060600080600080600080600360008054906101000a900473ffffffffffffffffffffffffffffffffffffffff16600254600154600454600560009054906101000a900473ffffffffffffffffffffffffffffffffffffffff16600560149054906101000a900460ff16868054610483906112fb565b80601f01602080910402602001604051908101604052809291908181526020018280546104af906112fb565b80156104fc5780601f106104d1576101008083540402835291602001916104fc565b820191906000526020600020905b8154815290600101906020018083116104df57829003601f168201915b50505050509650965096509650965096509650965090919293949596565b60038054610527906112fb565b80601f0160208091040260200160405190810160405280929190818152602001828054610553906112fb565b80156105a05780601f10610575576101008083540402835291602001916105a0565b820191906000526020600020905b81548152906001019060200180831161058357829003601f168201915b505050505081565b60015481565b600060088054905082106105f7576040517f08c379a00000000000000000000000000000000000000000000000000000000081526004016105ee906111d3565b60405180910390fd5b60088281548110610631577f4e487b7100000000000000000000000000000000000000000000000000000000600052603260045260246000fd5b9060005260206000200160009054906101000a900473ffffffffffffffffffffffffffffffffffffffff169050919050565b60076020528060005260406000206000915090505481565b600560149054906101000a900460ff1681565b60008054906101000a900473ffffffffffffffffffffffffffffffffffffffff1681565b600560009054906101000a900473ffffffffffffffffffffffffffffffffffffffff1681565b60008060088054905011905090565b600881815481106106f757600080fd5b906000526020600020016000915054906101000a900473ffffffffffffffffffffffffffffffffffffffff1681565b60045481565b600254421015610771576040517f08c379a000000000000000000000000000000000000000000000000000000000815260040161076890611193565b60405180910390fd5b600560149054906101000a900460ff16156107c1576040517f08c379a00000000000000000000000000000000000000000000000000000000081526004016107b890611153565b60405180910390fd5b6001544210610805576040517f08c379a00000000000000000000000000000000000000000000000000000000081526004016107fc90611173565b60405180910390fd5b60008054906101000a900473ffffffffffffffffffffffffffffffffffffffff1673ffffffffffffffffffffffffffffffffffffffff163373ffffffffffffffffffffffffffffffffffffffff161415610894576040517f08c379a000000000000000000000000000000000000000000000000000000000815260040161088b90611133565b60405180910390fd5b60065434116108d8576040517f08c379a00000000000000000000000000000000000000000000000000000000081526004016108cf906111b3565b60405180910390fd5b34600760008373ffffffffffffffffffffffffffffffffffffffff1673ffffffffffffffffffffffffffffffffffffffff1681526020019081526020016000206000828254610927919061122a565b925050819055506008819080600181540180825580915050600190039060005260206000200160009091909190916101000a81548173ffffffffffffffffffffffffffffffffffffffff021916908373ffffffffffffffffffffffffffffffffffffffff160217905550600454600760008373ffffffffffffffffffffffffffffffffffffffff1673ffffffffffffffffffffffffffffffffffffffff168152602001908152602001600020541115610a6257600760008273ffffffffffffffffffffffffffffffffffffffff1673ffffffffffffffffffffffffffffffffffffffff1681526020019081526020016000205460048190555080600560006101000a81548173ffffffffffffffffffffffffffffffffffffffff021916908373ffffffffffffffffffffffffffffffffffffffff1602179055505b50565b6000600880549050905090565b60025481565b600560149054906101000a900460ff1615610ac8576040517f08c379a0000000000000000000000000000000000000000000000000000000008152600401610abf90611153565b60405180910390fd5b6001600560146101000a81548160ff02191690831515021790555060005b600880549050811015610db157600560009054906101000a900473ffffffffffffffffffffffffffffffffffffffff1673ffffffffffffffffffffffffffffffffffffffff1660088281548110610b66577f4e487b7100000000000000000000000000000000000000000000000000000000600052603260045260246000fd5b9060005260206000200160009054906101000a900473ffffffffffffffffffffffffffffffffffffffff1673ffffffffffffffffffffffffffffffffffffffff1614610d9e5760006007600060088481548110610bec577f4e487b7100000000000000000000000000000000000000000000000000000000600052603260045260246000fd5b9060005260206000200160009054906101000a900473ffffffffffffffffffffffffffffffffffffffff1673ffffffffffffffffffffffffffffffffffffffff1673ffffffffffffffffffffffffffffffffffffffff16815260200190815260200160002054905060088281548110610c8e577f4e487b7100000000000000000000000000000000000000000000000000000000600052603260045260246000fd5b9060005260206000200160009054906101000a900473ffffffffffffffffffffffffffffffffffffffff1673ffffffffffffffffffffffffffffffffffffffff166108fc829081150290604051600060405180830381858888f19350505050158015610cfe573d6000803e3d6000fd5b507fbb28353e4598c3b9199101a66e0989549b659a59a54d2c27fbb183f1932c8e6d60088381548110610d5a577f4e487b7100000000000000000000000000000000000000000000000000000000600052603260045260246000fd5b9060005260206000200160009054906101000a900473ffffffffffffffffffffffffffffffffffffffff1682604051610d94929190611057565b60405180910390a1505b8080610da99061132d565b915050610ae6565b50565b600081359050610dc3816113e5565b92915050565b600081359050610dd8816113fc565b92915050565b600060208284031215610df057600080fd5b6000610dfe84828501610db4565b91505092915050565b600060208284031215610e1957600080fd5b6000610e2784828501610dc9565b91505092915050565b610e3981611280565b82525050565b610e4881611292565b82525050565b6000610e598261120e565b610e638185611219565b9350610e738185602086016112c8565b610e7c816113d4565b840191505092915050565b6000610e94601883611219565b91507f4f776e65722063616e6e6f7420706c61636520612062696400000000000000006000830152602082019050919050565b6000610ed4601983611219565b91507f41756374696f6e2068617320616c726561647920656e646564000000000000006000830152602082019050919050565b6000610f14601183611219565b91507f41756374696f6e2068617320656e6465640000000000000000000000000000006000830152602082019050919050565b6000610f54601b83611219565b91507f41756374696f6e20686173206e6f7420737461727465642079657400000000006000830152602082019050919050565b6000610f94602b83611219565b91507f426964206d75737420626520686967686572207468616e20746865207265736560008301527f727665642070726963652e0000000000000000000000000000000000000000006020830152604082019050919050565b6000610ffa601383611219565b91507f496e646578206f7574206f6620626f756e6473000000000000000000000000006000830152602082019050919050565b611036816112be565b82525050565b60006020820190506110516000830184610e30565b92915050565b600060408201905061106c6000830185610e30565b611079602083018461102d565b9392505050565b60006020820190506110956000830184610e3f565b92915050565b600060208201905081810360008301526110b58184610e4e565b905092915050565b600060e08201905081810360008301526110d7818a610e4e565b90506110e66020830189610e30565b6110f3604083018861102d565b611100606083018761102d565b61110d608083018661102d565b61111a60a0830185610e30565b61112760c0830184610e3f565b98975050505050505050565b6000602082019050818103600083015261114c81610e87565b9050919050565b6000602082019050818103600083015261116c81610ec7565b9050919050565b6000602082019050818103600083015261118c81610f07565b9050919050565b600060208201905081810360008301526111ac81610f47565b9050919050565b600060208201905081810360008301526111cc81610f87565b9050919050565b600060208201905081810360008301526111ec81610fed565b9050919050565b6000602082019050611208600083018461102d565b92915050565b600081519050919050565b600082825260208201905092915050565b6000611235826112be565b9150611240836112be565b9250827fffffffffffffffffffffffffffffffffffffffffffffffffffffffffffffffff0382111561127557611274611376565b5b828201905092915050565b600061128b8261129e565b9050919050565b60008115159050919050565b600073ffffffffffffffffffffffffffffffffffffffff82169050919050565b6000819050919050565b60005b838110156112e65780820151818401526020810190506112cb565b838111156112f5576000848401525b50505050565b6000600282049050600182168061131357607f821691505b60208210811415611327576113266113a5565b5b50919050565b6000611338826112be565b91507fffffffffffffffffffffffffffffffffffffffffffffffffffffffffffffffff82141561136b5761136a611376565b5b600182019050919050565b7f4e487b7100000000000000000000000000000000000000000000000000000000600052601160045260246000fd5b7f4e487b7100000000000000000000000000000000000000000000000000000000600052602260045260246000fd5b6000601f19601f8301169050919050565b6113ee81611280565b81146113f957600080fd5b50565b611405816112be565b811461141057600080fd5b5056fea26469706673582212206b900dab5e4381fcd1355d4baa31eefb94b5d1ec3d2fc11431b03e5a4b2668e764736f6c63430008000033a264697066735822122042635e2766f76c7807f35d41b7b0038f2b56e0745ff4fd512b46fa73099342e664736f6c63430008000033",
  "immutableReferences": {},
  "source": "// SPDX-License-Identifier: MIT\r\npragma solidity ^0.8.0;\r\n\r\nimport \"./Auction.sol\";\r\n\r\ncontract AuctionManager {\r\n    // Mapping from owner address to list of deployed auctions\r\n    mapping(address => Auction[]) public auctions;\r\n\r\n    // Array to keep track of all auctions\r\n    Auction[] public allAuctions;\r\n\r\n    // Event logging\r\n    event AuctionCreated(address indexed owner, Auction auction, address indexed auctionAddress);\r\n    event BidPlaced(address indexed bidder, address indexed auction, uint256 amount);\r\n    event AuctionEnded(address indexed owner, Auction auction);\r\n\r\n    // Create a new auction and store it in the auctions mapping\r\n    function createAuction(string memory _itemName, uint256 _durationMinutes, uint256 _reservedPrice, uint256 _startTimestamp) public {\r\n        Auction newAuction = new Auction(_itemName, _durationMinutes, _reservedPrice, _startTimestamp, msg.sender);\r\n        auctions[msg.sender].push(newAuction);\r\n        allAuctions.push(newAuction);\r\n        emit AuctionCreated(msg.sender, newAuction, address(newAuction));\r\n    }\r\n\r\n    // Get details of all auctions for a specific owner\r\n    function getAuctions(address owner) public view returns (Auction[] memory) {\r\n        return auctions[owner];\r\n    }\r\n\r\n    // End a specific auction\r\n    function endAuction(Auction auction) public {\r\n        //require(auction.owner() == msg.sender, \"You are not the owner of this auction\");\r\n        auction.endAuction();\r\n        emit AuctionEnded(msg.sender, auction);\r\n    }\r\n\r\n    // Get details of all ongoing auctions\r\n    function getAllAuctions() public view returns (Auction[] memory) {\r\n        return allAuctions;\r\n    }\r\n\r\n    // Place a bid on a specific auction\r\n    function placeBidOnAuction(Auction auction, uint256 amount) public payable {\r\n        // Forward the funds and call the placeBid function of the Auction contract\r\n        // (bool success, ) = address(auction).call{value: amount}(abi.encodeWithSignature(\"placeBid()\"));\r\n        // require(success, \"Failed to place bid\");\r\n        auction.placeBid{value: amount}(msg.sender);\r\n        // Emit the event\r\n        emit BidPlaced(msg.sender, address(auction), amount);\r\n    }\r\n\r\n    function auctionHasBidders(Auction auction) public view returns (bool) {\r\n        return auction.hasBidders();\r\n    }\r\n\r\n}\r\n",
  "sourcePath": "C:\\Users\\ASUS\\OneDrive - Asia Pacific University\\FYP\\FYP Visual Studio\\Loh Yuen Wei_TP063508_FYP_P2P Lending Platform\\contracts\\AuctionManager.sol",
  "compiler": {
    "name": "solc",
    "version": "0.8.0+commit.c7dfd78e.Emscripten.clang"
  },
  "schemaVersion": "3.4.16",
  "updatedAt": "2024-01-10T08:27:01.180Z",
  "devdoc": {
    "kind": "dev",
    "methods": {},
    "version": 1
  },
  "userdoc": {
    "kind": "user",
    "methods": {},
    "version": 1
  }
}