{
  "contractName": "HashHolder",
  "abi": [
    {
      "anonymous": false,
      "inputs": [
        {
          "indexed": false,
          "internalType": "string",
          "name": "tableName",
          "type": "string"
        },
        {
          "indexed": false,
          "internalType": "string",
          "name": "primaryKey",
          "type": "string"
        },
        {
          "indexed": false,
          "internalType": "string",
          "name": "hash",
          "type": "string"
        }
      ],
      "name": "HashUpdated",
      "type": "event"
    },
    {
      "inputs": [
        {
          "internalType": "string",
          "name": "tableName",
          "type": "string"
        },
        {
          "internalType": "string",
          "name": "hash",
          "type": "string"
        },
        {
          "internalType": "string",
          "name": "primaryKey",
          "type": "string"
        }
      ],
      "name": "setLatestHash",
      "outputs": [],
      "stateMutability": "nonpayable",
      "type": "function"
    },
    {
      "inputs": [
        {
          "internalType": "string[]",
          "name": "tableNames",
          "type": "string[]"
        },
        {
          "internalType": "string[]",
          "name": "hashes",
          "type": "string[]"
        },
        {
          "internalType": "string[]",
          "name": "primaryKeys",
          "type": "string[]"
        }
      ],
      "name": "setMultipleLatestHashes",
      "outputs": [],
      "stateMutability": "nonpayable",
      "type": "function"
    },
    {
      "inputs": [
        {
          "internalType": "string",
          "name": "tableName",
          "type": "string"
        }
      ],
      "name": "getLatestHash",
      "outputs": [
        {
          "internalType": "string",
          "name": "",
          "type": "string"
        },
        {
          "internalType": "string",
          "name": "",
          "type": "string"
        }
      ],
      "stateMutability": "view",
      "type": "function",
      "constant": true
    }
  ],
  "bytecode": "0x608060405234801561001057600080fd5b50610c41806100206000396000f3fe608060405234801561001057600080fd5b50600436106100415760003560e01c8063683bafcc146100465780638227363e14610077578063e51f1e4a14610093575b600080fd5b610060600480360381019061005b9190610790565b6100af565b60405161006e92919061094f565b60405180910390f35b610091600480360381019061008c91906106f9565b610216565b005b6100ad60048036038101906100a891906107d1565b6104b7565b005b606080600080846040516100c39190610938565b90815260200160405180910390206040518060400160405290816000820180546100ec90610af2565b80601f016020809104026020016040519081016040528092919081815260200182805461011890610af2565b80156101655780601f1061013a57610100808354040283529160200191610165565b820191906000526020600020905b81548152906001019060200180831161014857829003601f168201915b5050505050815260200160018201805461017e90610af2565b80601f01602080910402602001604051908101604052809291908181526020018280546101aa90610af2565b80156101f75780601f106101cc576101008083540402835291602001916101f7565b820191906000526020600020905b8154815290600101906020018083116101da57829003601f168201915b5050505050815250509050806000015181602001519250925050915091565b81518351148015610228575080518251145b610267576040517f08c379a000000000000000000000000000000000000000000000000000000000815260040161025e906109d2565b60405180910390fd5b60005b83518110156104b15760405180604001604052808383815181106102b7577f4e487b7100000000000000000000000000000000000000000000000000000000600052603260045260246000fd5b602002602001015181526020018483815181106102fd577f4e487b7100000000000000000000000000000000000000000000000000000000600052603260045260246000fd5b60200260200101518152506000858381518110610343577f4e487b7100000000000000000000000000000000000000000000000000000000600052603260045260246000fd5b60200260200101516040516103589190610938565b90815260200160405180910390206000820151816000019080519060200190610382929190610567565b50602082015181600101908051906020019061039f929190610567565b509050507f1d5cefeecb5269d34a96f21d9afe6b386b766d7434ad980218d71907b53b79e18482815181106103fd577f4e487b7100000000000000000000000000000000000000000000000000000000600052603260045260246000fd5b602002602001015183838151811061043e577f4e487b7100000000000000000000000000000000000000000000000000000000600052603260045260246000fd5b602002602001015185848151811061047f577f4e487b7100000000000000000000000000000000000000000000000000000000600052603260045260246000fd5b602002602001015160405161049693929190610986565b60405180910390a180806104a990610b24565b91505061026a565b50505050565b6040518060400160405280828152602001838152506000846040516104dc9190610938565b90815260200160405180910390206000820151816000019080519060200190610506929190610567565b506020820151816001019080519060200190610523929190610567565b509050507f1d5cefeecb5269d34a96f21d9afe6b386b766d7434ad980218d71907b53b79e183828460405161055a93929190610986565b60405180910390a1505050565b82805461057390610af2565b90600052602060002090601f01602090048101928261059557600085556105dc565b82601f106105ae57805160ff19168380011785556105dc565b828001600101855582156105dc579182015b828111156105db5782518255916020019190600101906105c0565b5b5090506105e991906105ed565b5090565b5b808211156106065760008160009055506001016105ee565b5090565b600061061d61061884610a23565b6109f2565b9050808382526020820190508260005b8581101561065d578135850161064388826106cf565b84526020840193506020830192505060018101905061062d565b5050509392505050565b600061067a61067584610a4f565b6109f2565b90508281526020810184848401111561069257600080fd5b61069d848285610ab0565b509392505050565b600082601f8301126106b657600080fd5b81356106c684826020860161060a565b91505092915050565b600082601f8301126106e057600080fd5b81356106f0848260208601610667565b91505092915050565b60008060006060848603121561070e57600080fd5b600084013567ffffffffffffffff81111561072857600080fd5b610734868287016106a5565b935050602084013567ffffffffffffffff81111561075157600080fd5b61075d868287016106a5565b925050604084013567ffffffffffffffff81111561077a57600080fd5b610786868287016106a5565b9150509250925092565b6000602082840312156107a257600080fd5b600082013567ffffffffffffffff8111156107bc57600080fd5b6107c8848285016106cf565b91505092915050565b6000806000606084860312156107e657600080fd5b600084013567ffffffffffffffff81111561080057600080fd5b61080c868287016106cf565b935050602084013567ffffffffffffffff81111561082957600080fd5b610835868287016106cf565b925050604084013567ffffffffffffffff81111561085257600080fd5b61085e868287016106cf565b9150509250925092565b600061087382610a7f565b61087d8185610a8a565b935061088d818560208601610abf565b61089681610bfa565b840191505092915050565b60006108ac82610a7f565b6108b68185610a9b565b93506108c6818560208601610abf565b80840191505092915050565b60006108df602783610a8a565b91507f496e70757420617272617973206d757374206265206f66207468652073616d6560008301527f206c656e677468000000000000000000000000000000000000000000000000006020830152604082019050919050565b600061094482846108a1565b915081905092915050565b600060408201905081810360008301526109698185610868565b9050818103602083015261097d8184610868565b90509392505050565b600060608201905081810360008301526109a08186610868565b905081810360208301526109b48185610868565b905081810360408301526109c88184610868565b9050949350505050565b600060208201905081810360008301526109eb816108d2565b9050919050565b6000604051905081810181811067ffffffffffffffff82111715610a1957610a18610bcb565b5b8060405250919050565b600067ffffffffffffffff821115610a3e57610a3d610bcb565b5b602082029050602081019050919050565b600067ffffffffffffffff821115610a6a57610a69610bcb565b5b601f19601f8301169050602081019050919050565b600081519050919050565b600082825260208201905092915050565b600081905092915050565b6000819050919050565b82818337600083830152505050565b60005b83811015610add578082015181840152602081019050610ac2565b83811115610aec576000848401525b50505050565b60006002820490506001821680610b0a57607f821691505b60208210811415610b1e57610b1d610b9c565b5b50919050565b6000610b2f82610aa6565b91507fffffffffffffffffffffffffffffffffffffffffffffffffffffffffffffffff821415610b6257610b61610b6d565b5b600182019050919050565b7f4e487b7100000000000000000000000000000000000000000000000000000000600052601160045260246000fd5b7f4e487b7100000000000000000000000000000000000000000000000000000000600052602260045260246000fd5b7f4e487b7100000000000000000000000000000000000000000000000000000000600052604160045260246000fd5b6000601f19601f830116905091905056fea26469706673582212208d017a1476140d2cc15bfa4b98b2c5bd944dce2ea6377df501edb29b7f64721b64736f6c63430008000033",
  "immutableReferences": {},
  "source": "// SPDX-License-Identifier: MIT\r\npragma solidity ^0.8.0;\r\n\r\ncontract HashHolder{\r\n    struct HashDetails {\r\n        string primaryKey;\r\n        string hash;\r\n    }\r\n\r\n    event HashUpdated(string tableName, string primaryKey, string hash);\r\n    mapping(string => HashDetails) private latestHashes;\r\n\r\n    function setLatestHash(string memory tableName, string memory hash, string memory primaryKey) public {\r\n        latestHashes[tableName] = HashDetails(primaryKey, hash);\r\n        emit HashUpdated(tableName, primaryKey, hash);\r\n    }\r\n\r\n    function setMultipleLatestHashes(string[] memory tableNames, string[] memory hashes, string[] memory primaryKeys) public {\r\n        require(tableNames.length == hashes.length && hashes.length == primaryKeys.length, \"Input arrays must be of the same length\");\r\n\r\n        for (uint i = 0; i < tableNames.length; i++) {\r\n            latestHashes[tableNames[i]] = HashDetails(primaryKeys[i], hashes[i]);\r\n            emit HashUpdated(tableNames[i], primaryKeys[i], hashes[i]);\r\n        }\r\n    }\r\n\r\n    function getLatestHash(string memory tableName) public view returns (string memory, string memory) {\r\n        HashDetails memory details = latestHashes[tableName];\r\n        return (details.primaryKey, details.hash);\r\n    }\r\n\r\n    // haoming solution\r\n    //string public borrowerPK;\r\n    //string public clientPK;\r\n\r\n    // latestHashes[tableName][primaryKey] = hash;\r\n        // if(tableName==\"borrower\")\r\n        // {\r\n        //     borrowerPK = primaryKey;\r\n        // } else if (tableName==\"client\") {\r\n        //     clientPK = primaryKey;\r\n        // }\r\n\r\n    // haoming solution\r\n\r\n    // string public borrower;\r\n    // string public client;\r\n    // string public application;\r\n    // string public investedNote;\r\n    // string public lender;\r\n\r\n    // // Setters\r\n    // function setBorrower(string memory _borrower) public {\r\n    //     borrower = _borrower;\r\n    // }\r\n\r\n    // function setClient(string memory _client) public {\r\n    //     client = _client;\r\n    // }\r\n\r\n    // function setApplication(string memory _application) public {\r\n    //     application = _application;\r\n    // }\r\n\r\n    // function setInvestedNote(string memory _investedNote) public {\r\n    //     investedNote = _investedNote;\r\n    // }\r\n\r\n    // function setLender(string memory _lender) public {\r\n    //     lender = _lender;\r\n    // }\r\n    \r\n}",
  "sourcePath": "C:\\Users\\ASUS\\OneDrive - Asia Pacific University\\FYP\\FYP Visual Studio\\Loh Yuen Wei_TP063508_FYP_P2P Lending Platform\\contracts\\HashHolder.sol",
  "compiler": {
    "name": "solc",
    "version": "0.8.0+commit.c7dfd78e.Emscripten.clang"
  },
  "schemaVersion": "3.4.16",
  "updatedAt": "2024-01-10T08:27:07.598Z",
  "networkType": "ethereum",
  "devdoc": {
    "kind": "dev",
    "methods": {},
    "version": 1
  },
  "userdoc": {
    "kind": "user",
    "methods": {},
    "version": 1
  }
}