{
  "contractName": "InvestmentNote",
  "abi": [
    {
      "inputs": [
        {
          "internalType": "address",
          "name": "_borrowerAddress",
          "type": "address"
        },
        {
          "internalType": "uint256",
          "name": "_financingAmt",
          "type": "uint256"
        },
        {
          "internalType": "uint256",
          "name": "_Duration",
          "type": "uint256"
        },
        {
          "internalType": "uint256",
          "name": "_repaymentAmt",
          "type": "uint256"
        },
        {
          "internalType": "uint256",
          "name": "_interestRate",
          "type": "uint256"
        }
      ],
      "stateMutability": "nonpayable",
      "type": "constructor"
    },
    {
      "anonymous": false,
      "inputs": [],
      "name": "fundSufficiencyChecked",
      "type": "event"
    },
    {
      "anonymous": false,
      "inputs": [
        {
          "indexed": false,
          "internalType": "address",
          "name": "borrowerAddress",
          "type": "address"
        },
        {
          "indexed": false,
          "internalType": "uint256",
          "name": "repaymentAmt",
          "type": "uint256"
        }
      ],
      "name": "loanRepaid",
      "type": "event"
    },
    {
      "anonymous": false,
      "inputs": [
        {
          "indexed": false,
          "internalType": "address",
          "name": "borrowerAddress",
          "type": "address"
        }
      ],
      "name": "reminderSent",
      "type": "event"
    },
    {
      "stateMutability": "payable",
      "type": "fallback",
      "payable": true
    },
    {
      "inputs": [],
      "name": "Duration",
      "outputs": [
        {
          "internalType": "uint256",
          "name": "",
          "type": "uint256"
        }
      ],
      "stateMutability": "view",
      "type": "function",
      "constant": true
    },
    {
      "inputs": [],
      "name": "borrowerAddress",
      "outputs": [
        {
          "internalType": "address",
          "name": "",
          "type": "address"
        }
      ],
      "stateMutability": "view",
      "type": "function",
      "constant": true
    },
    {
      "inputs": [],
      "name": "financingAmt",
      "outputs": [
        {
          "internalType": "uint256",
          "name": "",
          "type": "uint256"
        }
      ],
      "stateMutability": "view",
      "type": "function",
      "constant": true
    },
    {
      "inputs": [],
      "name": "fundedToDate",
      "outputs": [
        {
          "internalType": "uint256",
          "name": "",
          "type": "uint256"
        }
      ],
      "stateMutability": "view",
      "type": "function",
      "constant": true
    },
    {
      "inputs": [],
      "name": "interestRate",
      "outputs": [
        {
          "internalType": "uint256",
          "name": "",
          "type": "uint256"
        }
      ],
      "stateMutability": "view",
      "type": "function",
      "constant": true
    },
    {
      "inputs": [
        {
          "internalType": "address",
          "name": "",
          "type": "address"
        }
      ],
      "name": "investments",
      "outputs": [
        {
          "internalType": "uint256",
          "name": "",
          "type": "uint256"
        }
      ],
      "stateMutability": "view",
      "type": "function",
      "constant": true
    },
    {
      "inputs": [
        {
          "internalType": "uint256",
          "name": "",
          "type": "uint256"
        }
      ],
      "name": "investors",
      "outputs": [
        {
          "internalType": "address",
          "name": "",
          "type": "address"
        }
      ],
      "stateMutability": "view",
      "type": "function",
      "constant": true
    },
    {
      "inputs": [],
      "name": "listedDate",
      "outputs": [
        {
          "internalType": "uint256",
          "name": "",
          "type": "uint256"
        }
      ],
      "stateMutability": "view",
      "type": "function",
      "constant": true
    },
    {
      "inputs": [],
      "name": "listedEndDate",
      "outputs": [
        {
          "internalType": "uint256",
          "name": "",
          "type": "uint256"
        }
      ],
      "stateMutability": "view",
      "type": "function",
      "constant": true
    },
    {
      "inputs": [],
      "name": "repaymentAmt",
      "outputs": [
        {
          "internalType": "uint256",
          "name": "",
          "type": "uint256"
        }
      ],
      "stateMutability": "view",
      "type": "function",
      "constant": true
    },
    {
      "inputs": [],
      "name": "repaymentDate",
      "outputs": [
        {
          "internalType": "uint256",
          "name": "",
          "type": "uint256"
        }
      ],
      "stateMutability": "view",
      "type": "function",
      "constant": true
    },
    {
      "stateMutability": "payable",
      "type": "receive",
      "payable": true
    },
    {
      "inputs": [
        {
          "internalType": "address",
          "name": "investor",
          "type": "address"
        }
      ],
      "name": "invest",
      "outputs": [
        {
          "internalType": "uint256",
          "name": "",
          "type": "uint256"
        },
        {
          "internalType": "uint256",
          "name": "",
          "type": "uint256"
        },
        {
          "internalType": "uint256",
          "name": "",
          "type": "uint256"
        },
        {
          "internalType": "bool",
          "name": "",
          "type": "bool"
        }
      ],
      "stateMutability": "payable",
      "type": "function",
      "payable": true
    },
    {
      "inputs": [],
      "name": "refund",
      "outputs": [],
      "stateMutability": "payable",
      "type": "function",
      "payable": true
    },
    {
      "inputs": [],
      "name": "repay",
      "outputs": [],
      "stateMutability": "payable",
      "type": "function",
      "payable": true
    }
  ],
  "bytecode": "0x60806040523480156200001157600080fd5b506040516200199038038062001990833981810160405281019062000037919062000127565b846000806101000a81548173ffffffffffffffffffffffffffffffffffffffff021916908373ffffffffffffffffffffffffffffffffffffffff1602179055504260018190555061012c600154620000909190620001a9565b600281905550836003819055506000600481905550603c83620000b491906200023e565b600581905550600554600254620000cc9190620001a9565b60068190555081600781905550606481620000e8919062000206565b60088190555050505050506200036f565b6000815190506200010a816200033b565b92915050565b600081519050620001218162000355565b92915050565b600080600080600060a086880312156200014057600080fd5b60006200015088828901620000f9565b9550506020620001638882890162000110565b9450506040620001768882890162000110565b9350506060620001898882890162000110565b92505060806200019c8882890162000110565b9150509295509295909350565b6000620001b682620002d3565b9150620001c383620002d3565b9250827fffffffffffffffffffffffffffffffffffffffffffffffffffffffffffffffff03821115620001fb57620001fa620002dd565b5b828201905092915050565b60006200021382620002d3565b91506200022083620002d3565b9250826200023357620002326200030c565b5b828204905092915050565b60006200024b82620002d3565b91506200025883620002d3565b9250817fffffffffffffffffffffffffffffffffffffffffffffffffffffffffffffffff0483118215151615620002945762000293620002dd565b5b828202905092915050565b6000620002ac82620002b3565b9050919050565b600073ffffffffffffffffffffffffffffffffffffffff82169050919050565b6000819050919050565b7f4e487b7100000000000000000000000000000000000000000000000000000000600052601160045260246000fd5b7f4e487b7100000000000000000000000000000000000000000000000000000000600052601260045260246000fd5b62000346816200029f565b81146200035257600080fd5b50565b6200036081620002d3565b81146200036c57600080fd5b50565b611611806200037f6000396000f3fe6080604052600436106100e15760003560e01c80637c3a00fd1161007f578063b05f04d311610059578063b05f04d314610282578063ccb30941146102ad578063ee1edc62146102d8578063f0381b3c14610303576100e8565b80637c3a00fd146101ef57806396b988621461021a57806398319d6e14610257576100e8565b8063402d8883116100bb578063402d8883146101855780634a6bfb871461018f578063590e1ae3146101ba5780637ba61ea5146101c4576100e8565b806303f9c793146100ea5780632fc9629b1461011d5780633feb5f2b14610148576100e8565b366100e857005b005b61010460048036038101906100ff9190610ecc565b61032e565b604051610114949392919061128e565b60405180910390f35b34801561012957600080fd5b506101326105d6565b60405161013f9190611273565b60405180910390f35b34801561015457600080fd5b5061016f600480360381019061016a9190610ef5565b6105dc565b60405161017c9190611176565b60405180910390f35b61018d61061b565b005b34801561019b57600080fd5b506101a4610a09565b6040516101b19190611273565b60405180910390f35b6101c2610a0f565b005b3480156101d057600080fd5b506101d9610bd2565b6040516101e69190611176565b60405180910390f35b3480156101fb57600080fd5b50610204610bf6565b6040516102119190611273565b60405180910390f35b34801561022657600080fd5b50610241600480360381019061023c9190610ecc565b610bfc565b60405161024e9190611273565b60405180910390f35b34801561026357600080fd5b5061026c610c14565b6040516102799190611273565b60405180910390f35b34801561028e57600080fd5b50610297610c1a565b6040516102a49190611273565b60405180910390f35b3480156102b957600080fd5b506102c2610c20565b6040516102cf9190611273565b60405180910390f35b3480156102e457600080fd5b506102ed610c26565b6040516102fa9190611273565b60405180910390f35b34801561030f57600080fd5b50610318610c2c565b6040516103259190611273565b60405180910390f35b600080600080600154421015610379576040517f08c379a0000000000000000000000000000000000000000000000000000000008152600401610370906111f3565b60405180910390fd5b60025442106103bd576040517f08c379a00000000000000000000000000000000000000000000000000000000081526004016103b490611233565b60405180910390fd5b6103fb6040518060400160405280601981526020017f696e766573742066756e6374696f6e2074726967676572656400000000000000815250610c32565b600060045460035461040d91906113d0565b34111561044f576040517f08c379a000000000000000000000000000000000000000000000000000000000815260040161044690611213565b60405180910390fd5b61047060405180606001604052806023815260200161159560239139610c32565b34600960008873ffffffffffffffffffffffffffffffffffffffff1673ffffffffffffffffffffffffffffffffffffffff16815260200190815260200160002060008282546104bf91906112ef565b92505081905550600a869080600181540180825580915050600190039060005260206000200160009091909190916101000a81548173ffffffffffffffffffffffffffffffffffffffff021916908373ffffffffffffffffffffffffffffffffffffffff1602179055506105676040518060400160405280601581526020017f7570646174652066756e64656420746f20646174650000000000000000000000815250610c32565b346004600082825461057991906112ef565b9250508190555060035460045414156105bc57426002819055506005546002546105a391906112ef565b6006819055506105b1610ccb565b600481905550600190505b600454600254600654839450945094509450509193509193565b60075481565b600a81815481106105ec57600080fd5b906000526020600020016000915054906101000a900473ffffffffffffffffffffffffffffffffffffffff1681565b6106596040518060400160405280601881526020017f52657061792066756e6374696f6e207472696767657265640000000000000000815250610c32565b600034905061069c6040518060400160405280601881526020017f76616c75652070617373656420746f207265706179416d740000000000000000815250610c32565b804710156106df576040517f08c379a00000000000000000000000000000000000000000000000000000000081526004016106d6906111b3565b60405180910390fd5b61071d6040518060400160405280601481526020017f62616c616e636520636865636b20706173736564000000000000000000000000815250610c32565b6000805b600a805490508110156108bb5760006003548460096000600a8681548110610772577f4e487b7100000000000000000000000000000000000000000000000000000000600052603260045260246000fd5b9060005260206000200160009054906101000a900473ffffffffffffffffffffffffffffffffffffffff1673ffffffffffffffffffffffffffffffffffffffff1673ffffffffffffffffffffffffffffffffffffffff168152602001908152602001600020546107e29190611376565b6107ec9190611345565b905080836107fa91906112ef565b9250600a8281548110610836577f4e487b7100000000000000000000000000000000000000000000000000000000600052603260045260246000fd5b9060005260206000200160009054906101000a900473ffffffffffffffffffffffffffffffffffffffff1673ffffffffffffffffffffffffffffffffffffffff166108fc829081150290604051600060405180830381858888f193505050501580156108a6573d6000803e3d6000fd5b505080806108b39061147f565b915050610721565b506108fa6040518060400160405280600b81526020017f72657061696420646f6e65000000000000000000000000000000000000000000815250610c32565b600047905060008113156109e25760065442116109bb5760008054906101000a900473ffffffffffffffffffffffffffffffffffffffff1673ffffffffffffffffffffffffffffffffffffffff166108fc829081150290604051600060405180830381858888f19350505050158015610977573d6000803e3d6000fd5b506109b66040518060400160405280601181526020017f72657475726e20636f6c6c61746572616c000000000000000000000000000000815250610c32565b6109dd565b6109dc6040518060600160405280602f8152602001611566602f9139610c32565b5b610a04565b610a036040518060600160405280602481526020016115b860249139610c32565b5b505050565b60035481565b600034905080471015610a57576040517f08c379a0000000000000000000000000000000000000000000000000000000008152600401610a4e90611253565b60405180910390fd5b60005b600a80549050811015610bce57600060096000600a8481548110610aa7577f4e487b7100000000000000000000000000000000000000000000000000000000600052603260045260246000fd5b9060005260206000200160009054906101000a900473ffffffffffffffffffffffffffffffffffffffff1673ffffffffffffffffffffffffffffffffffffffff1673ffffffffffffffffffffffffffffffffffffffff168152602001908152602001600020549050600a8281548110610b49577f4e487b7100000000000000000000000000000000000000000000000000000000600052603260045260246000fd5b9060005260206000200160009054906101000a900473ffffffffffffffffffffffffffffffffffffffff1673ffffffffffffffffffffffffffffffffffffffff166108fc829081150290604051600060405180830381858888f19350505050158015610bb9573d6000803e3d6000fd5b50508080610bc69061147f565b915050610a5a565b5050565b60008054906101000a900473ffffffffffffffffffffffffffffffffffffffff1681565b60085481565b60096020528060005260406000206000915090505481565b60015481565b60065481565b60055481565b60025481565b60045481565b610cc881604051602401610c469190611191565b6040516020818303038152906040527f41304fac000000000000000000000000000000000000000000000000000000007bffffffffffffffffffffffffffffffffffffffffffffffffffffffff19166020820180517bffffffffffffffffffffffffffffffffffffffffffffffffffffffff8381831617835250505050610e7d565b50565b6000610d0b6040518060400160405280601a81526020017f6469736275727365206d6574686f64207472696767657265642e000000000000815250610c32565b6003546004541015610d52576040517f08c379a0000000000000000000000000000000000000000000000000000000008152600401610d49906111d3565b60405180910390fd5b610d906040518060400160405280600e81526020017f636f6e646974696f6e2070617373000000000000000000000000000000000000815250610c32565b610dce6040518060400160405280600e81526020017f7472616e73666572207374617274000000000000000000000000000000000000815250610c32565b60008054906101000a900473ffffffffffffffffffffffffffffffffffffffff1673ffffffffffffffffffffffffffffffffffffffff166108fc6004549081150290604051600060405180830381858888f19350505050158015610e36573d6000803e3d6000fd5b50610e756040518060400160405280601a81526020017f7472616e7366657220656e642c2072657475726e2076616c7565000000000000815250610c32565b600454905090565b60006a636f6e736f6c652e6c6f6790508151602083016000808383865afa5050505050565b600081359050610eb181611537565b92915050565b600081359050610ec68161154e565b92915050565b600060208284031215610ede57600080fd5b6000610eec84828501610ea2565b91505092915050565b600060208284031215610f0757600080fd5b6000610f1584828501610eb7565b91505092915050565b610f2781611404565b82525050565b610f3681611416565b82525050565b6000610f47826112d3565b610f5181856112de565b9350610f6181856020860161144c565b610f6a81611526565b840191505092915050565b6000610f82602c836112de565b91507f436f6e747261637420646f6573206e6f74206861766520656e6f75676820667560008301527f6e647320746f20726570617900000000000000000000000000000000000000006020830152604082019050919050565b6000610fe86019836112de565b91507f46756e64696e6720676f616c206e6f7420726561636865642e000000000000006000830152602082019050919050565b6000611028601b836112de565b91507f546865206e6f746520686173206e6f74206c69737465642079657400000000006000830152602082019050919050565b60006110686032836112de565b91507f496e766573746d656e7420616d6f756e74206d757374206e6f7420657863656560008301527f642066696e616e63696e6720616d6f756e7400000000000000000000000000006020830152604082019050919050565b60006110ce601a836112de565b91507f546865206e6f74652068617320656e646564206c697374696e670000000000006000830152602082019050919050565b600061110e602d836112de565b91507f436f6e747261637420646f6573206e6f74206861766520656e6f75676820667560008301527f6e647320746f20726566756e64000000000000000000000000000000000000006020830152604082019050919050565b61117081611442565b82525050565b600060208201905061118b6000830184610f1e565b92915050565b600060208201905081810360008301526111ab8184610f3c565b905092915050565b600060208201905081810360008301526111cc81610f75565b9050919050565b600060208201905081810360008301526111ec81610fdb565b9050919050565b6000602082019050818103600083015261120c8161101b565b9050919050565b6000602082019050818103600083015261122c8161105b565b9050919050565b6000602082019050818103600083015261124c816110c1565b9050919050565b6000602082019050818103600083015261126c81611101565b9050919050565b60006020820190506112886000830184611167565b92915050565b60006080820190506112a36000830187611167565b6112b06020830186611167565b6112bd6040830185611167565b6112ca6060830184610f2d565b95945050505050565b600081519050919050565b600082825260208201905092915050565b60006112fa82611442565b915061130583611442565b9250827fffffffffffffffffffffffffffffffffffffffffffffffffffffffffffffffff0382111561133a576113396114c8565b5b828201905092915050565b600061135082611442565b915061135b83611442565b92508261136b5761136a6114f7565b5b828204905092915050565b600061138182611442565b915061138c83611442565b9250817fffffffffffffffffffffffffffffffffffffffffffffffffffffffffffffffff04831182151516156113c5576113c46114c8565b5b828202905092915050565b60006113db82611442565b91506113e683611442565b9250828210156113f9576113f86114c8565b5b828203905092915050565b600061140f82611422565b9050919050565b60008115159050919050565b600073ffffffffffffffffffffffffffffffffffffffff82169050919050565b6000819050919050565b60005b8381101561146a57808201518184015260208101905061144f565b83811115611479576000848401525b50505050565b600061148a82611442565b91507fffffffffffffffffffffffffffffffffffffffffffffffffffffffffffffffff8214156114bd576114bc6114c8565b5b600182019050919050565b7f4e487b7100000000000000000000000000000000000000000000000000000000600052601160045260246000fd5b7f4e487b7100000000000000000000000000000000000000000000000000000000600052601260045260246000fd5b6000601f19601f8301169050919050565b61154081611404565b811461154b57600080fd5b50565b61155781611442565b811461156257600080fd5b5056fe6c6174652072657061796d656e742c20636f6c6c61746572616c2077696c6c206e6f742062652072657475726e656475706461746520696e766573746f7220616e642074686520696e766573746d656e74736e6f206d6f72652062616c616e636520746f2072657475726e20636f6c6c61746572616ca26469706673582212202a59a3502e206be1f39bc90fa6c53d51bdead9790447ae2e19af71bb10ae72af64736f6c63430008000033",
  "immutableReferences": {},
  "source": "// SPDX-License-Identifier: MIT \r\npragma solidity ^0.8.0;\r\n\r\nimport \"../node_modules/@ganache/console.log/console.sol\";\r\n\r\ncontract InvestmentNote {\r\n    address public borrowerAddress;\r\n    uint256 public listedDate;\r\n    uint256 public listedEndDate;\r\n    uint256 public financingAmt;\r\n    uint256 public fundedToDate;\r\n    uint256 public Duration;\r\n    uint256 public repaymentDate;\r\n    uint256 public repaymentAmt;\r\n    uint256 public interestRate;\r\n    \r\n    // New mapping to keep track of all investors and their investments\r\n    mapping(address => uint256) public investments;\r\n    address[] public investors;\r\n\r\n    //uint constant SECONDS_PER_DAY = 24 * 60 * 60; // 86400\r\n    //uint constant DAYS_PER_MONTH = 30; // Approximation\r\n\r\n    // Constructor for creating an investmentNote\r\n    constructor(\r\n        address _borrowerAddress,\r\n        uint256 _financingAmt,\r\n        uint256 _Duration,\r\n        uint256 _repaymentAmt,\r\n        uint256 _interestRate\r\n    ) {\r\n        borrowerAddress = _borrowerAddress;\r\n        listedDate = block.timestamp;\r\n        listedEndDate = listedDate + 5 minutes;\r\n        financingAmt = _financingAmt;\r\n        fundedToDate = 0;\r\n        Duration = _Duration * 60;\r\n        repaymentDate = listedEndDate + Duration;\r\n        repaymentAmt = _repaymentAmt;\r\n        interestRate = _interestRate / 100;\r\n    }\r\n\r\n    // Event logging\r\n    event loanRepaid(address borrowerAddress, uint256 repaymentAmt);\r\n    event fundSufficiencyChecked();\r\n    event reminderSent(address borrowerAddress);\r\n\r\n    // Function to receive Ether. msg.data must be empty\r\n    receive() external payable {}\r\n\r\n    // Fallback function is called when msg.data is not empty\r\n    fallback() external payable {}\r\n    \r\n\r\n    modifier onlyBeforeEnd() {\r\n        require(block.timestamp < listedEndDate, \"The note has ended listing\");\r\n        _;\r\n    }\r\n\r\n    // Modify existing functions to check for start time\r\n    modifier onlyAfterStart() {\r\n        require(block.timestamp >= listedDate, \"The note has not listed yet\");\r\n        _;\r\n    }\r\n\r\n    function invest(address investor) public payable onlyAfterStart onlyBeforeEnd returns (uint256, uint256, uint256, bool) {\r\n        console.log(\"invest function triggered\");\r\n        bool disbursed = false;\r\n\r\n        // Ensure the invested amount does not exceed financingAmt\r\n        require(msg.value <= (financingAmt - fundedToDate), \"Investment amount must not exceed financing amount\");\r\n\r\n        console.log(\"update investor and the investments\");\r\n        investments[investor] += msg.value;\r\n        investors.push(investor);\r\n        \r\n        console.log(\"update funded to date\");\r\n        fundedToDate += msg.value;\r\n\r\n        // Check if funding is complete\r\n        if (fundedToDate == financingAmt) {\r\n            listedEndDate = block.timestamp;\r\n            repaymentDate = listedEndDate + Duration;\r\n            fundedToDate = disburse(); // trigger disburse function\r\n            disbursed = true;\r\n        }\r\n\r\n        return (fundedToDate, listedEndDate, repaymentDate, disbursed);\r\n    }\r\n\r\n    function disburse() internal returns (uint256) {\r\n        console.log(\"disburse method triggered.\");\r\n        require(fundedToDate >= financingAmt, \"Funding goal not reached.\");\r\n        console.log(\"condition pass\");\r\n\r\n        console.log(\"transfer start\");\r\n        payable(borrowerAddress).transfer(fundedToDate);\r\n        console.log(\"transfer end, return value\");\r\n        return fundedToDate;\r\n    }\r\n\r\n    function refund() public payable{\r\n        uint256 refundAmt = msg.value;\r\n\r\n        // Ensure the contract has enough balance to cover all refunds\r\n        require(address(this).balance >= refundAmt, \"Contract does not have enough funds to refund\");\r\n\r\n        for (uint i = 0; i < investors.length; i++) {\r\n            uint256 investorRefund = investments[investors[i]];\r\n            payable(investors[i]).transfer(investorRefund);\r\n        }\r\n    }\r\n\r\n    // =======================================================\r\n    // =================== repayment stage ===================\r\n    // =======================================================\r\n\r\n    function repay() public payable {\r\n        console.log(\"Repay function triggered\");\r\n        uint256 repayAmt = msg.value;\r\n        console.log(\"value passed to repayAmt\");\r\n\r\n        // Ensure the contract has enough balance to cover the repayment\r\n        require(address(this).balance >= repayAmt, \"Contract does not have enough funds to repay\");\r\n        console.log(\"balance check passed\");\r\n\r\n        uint256 totalPaidToInvestors = 0;\r\n\r\n        for (uint i = 0; i < investors.length; i++) {\r\n            // Calculate each investor's share of the total investment\r\n            uint256 investorShare = investments[investors[i]] * repayAmt / financingAmt;\r\n            totalPaidToInvestors += investorShare;\r\n            payable(investors[i]).transfer(investorShare);\r\n        }\r\n        console.log(\"repaid done\");\r\n\r\n        // Calculate remaining amount after paying investors\r\n        //int256 remainingAmount = int256(repayAmt) - int256(totalPaidToInvestors) - 4600;\r\n        int256 remainingAmount = int256(address(this).balance);\r\n\r\n        if (remainingAmount > 0) {\r\n            if (block.timestamp <= repaymentDate) {\r\n                payable(borrowerAddress).transfer(uint256(remainingAmount));\r\n                console.log(\"return collateral\");\r\n            }\r\n            else{\r\n                console.log(\"late repayment, collateral will not be returned\");\r\n            }\r\n        }\r\n        else{\r\n            console.log(\"no more balance to return collateral\");\r\n        }\r\n    }\r\n\r\n\r\n    // function repay() public payable {\r\n    //     console.log(\"Repay function triggered\");\r\n    //     uint256 repayAmt = msg.value;\r\n    //     console.log(\"value passed to repayAmt\");\r\n\r\n    //     // Ensure the contract has enough balance to cover the repayment\r\n    //     require(address(this).balance >= repayAmt, \"Contract does not have enough funds to repay\");\r\n    //     console.log(\"balance check passed\");\r\n\r\n    //     uint256 totalPaidToInvestors = 0;\r\n    //     uint256 totalRepayAmount = repayAmt > repaymentAmt ? repayAmt : repaymentAmt;\r\n\r\n    //     for (uint i = 0; i < investors.length; i++) {\r\n    //         // Calculate each investor's share of the total investment, accounting for potential extra repayment\r\n    //         uint256 investorShare = investments[investors[i]] * totalRepayAmount / financingAmt;\r\n    //         totalPaidToInvestors += investorShare;\r\n    //         payable(investors[i]).transfer(investorShare);\r\n    //     }\r\n    //     console.log(\"repaid done\");\r\n\r\n    //     // Check if there's any remaining balance and transfer it to the borrower\r\n    //     // Only if repayAmt is exactly equal to repaymentAmt\r\n    //     if (repayAmt == repaymentAmt) {\r\n    //         uint256 remainingBalance = address(this).balance - totalPaidToInvestors;\r\n    //         if (remainingBalance > 0) {\r\n    //             payable(borrowerAddress).transfer(remainingBalance);\r\n    //             console.log(\"Remaining balance transferred to borrower\");\r\n    //         }\r\n    //     }\r\n    // }\r\n\r\n\r\n    // function repay() public payable{\r\n    //     console.log(\"Repay function triggered\");\r\n    //     uint256 repayAmt = msg.value;\r\n    //     console.log(\"value passed to repayAmt\");\r\n    //     // Ensure the contract has enough balance to cover the repayment\r\n    //     require(address(this).balance >= repayAmt, \"Contract does not have enough funds to repay\");\r\n    //     console.log(\"balance check passed\");\r\n    //     for (uint i = 0; i < investors.length; i++) {\r\n    //         // Calculate each investor's share of the total investment\r\n    //         uint256 investorShare = investments[investors[i]] * repayAmt / financingAmt;\r\n    //         payable(investors[i]).transfer(investorShare);\r\n    //     }\r\n    //     console.log(\"repaid done\");\r\n    // }\r\n}\r\n",
  "sourcePath": "C:\\Users\\ASUS\\OneDrive - Asia Pacific University\\FYP\\FYP Visual Studio\\Loh Yuen Wei_TP063508_FYP_P2P Lending Platform\\contracts\\InvestmentNote.sol",
  "compiler": {
    "name": "solc",
    "version": "0.8.0+commit.c7dfd78e.Emscripten.clang"
  },
  "schemaVersion": "3.4.16",
  "updatedAt": "2024-01-10T08:27:07.347Z",
  "networkType": "ethereum",
  "devdoc": {
    "kind": "dev",
    "methods": {},
    "version": 1
  },
  "userdoc": {
    "kind": "user",
    "methods": {},
    "version": 1
  }
}