{
  "contractName": "NoteFactory",
  "abi": [
    {
      "anonymous": false,
      "inputs": [
        {
          "indexed": true,
          "internalType": "address",
          "name": "owner",
          "type": "address"
        },
        {
          "indexed": true,
          "internalType": "address",
          "name": "noteAddress",
          "type": "address"
        },
        {
          "indexed": false,
          "internalType": "uint256",
          "name": "listedEndDate",
          "type": "uint256"
        },
        {
          "indexed": false,
          "internalType": "uint256",
          "name": "Duration",
          "type": "uint256"
        },
        {
          "indexed": false,
          "internalType": "uint256",
          "name": "financingAmt",
          "type": "uint256"
        },
        {
          "indexed": false,
          "internalType": "uint256",
          "name": "repaymentDate",
          "type": "uint256"
        },
        {
          "indexed": false,
          "internalType": "uint256",
          "name": "repaymentAmt",
          "type": "uint256"
        }
      ],
      "name": "NoteCreated",
      "type": "event"
    },
    {
      "anonymous": false,
      "inputs": [
        {
          "indexed": true,
          "internalType": "address",
          "name": "owner",
          "type": "address"
        },
        {
          "indexed": false,
          "internalType": "address",
          "name": "note",
          "type": "address"
        },
        {
          "indexed": false,
          "internalType": "uint256",
          "name": "repayAmt",
          "type": "uint256"
        }
      ],
      "name": "fundRepaid",
      "type": "event"
    },
    {
      "anonymous": false,
      "inputs": [
        {
          "indexed": false,
          "internalType": "uint256",
          "name": "amountToDisburse",
          "type": "uint256"
        }
      ],
      "name": "fundsDisbursed",
      "type": "event"
    },
    {
      "anonymous": false,
      "inputs": [
        {
          "indexed": false,
          "internalType": "address",
          "name": "investor",
          "type": "address"
        },
        {
          "indexed": false,
          "internalType": "address",
          "name": "note",
          "type": "address"
        },
        {
          "indexed": false,
          "internalType": "uint256",
          "name": "amount",
          "type": "uint256"
        },
        {
          "indexed": false,
          "internalType": "uint256",
          "name": "fundedToDate",
          "type": "uint256"
        },
        {
          "indexed": false,
          "internalType": "uint256",
          "name": "updatedlistedEndDate",
          "type": "uint256"
        },
        {
          "indexed": false,
          "internalType": "uint256",
          "name": "updatedRepaymentDate",
          "type": "uint256"
        }
      ],
      "name": "noteInvested",
      "type": "event"
    },
    {
      "anonymous": false,
      "inputs": [
        {
          "indexed": true,
          "internalType": "address",
          "name": "owner",
          "type": "address"
        },
        {
          "indexed": false,
          "internalType": "address",
          "name": "note",
          "type": "address"
        },
        {
          "indexed": false,
          "internalType": "uint256",
          "name": "fundedToDate",
          "type": "uint256"
        }
      ],
      "name": "refunded",
      "type": "event"
    },
    {
      "inputs": [
        {
          "internalType": "uint256",
          "name": "",
          "type": "uint256"
        }
      ],
      "name": "allNotes",
      "outputs": [
        {
          "internalType": "contract InvestmentNote",
          "name": "",
          "type": "address"
        }
      ],
      "stateMutability": "view",
      "type": "function",
      "constant": true
    },
    {
      "inputs": [
        {
          "internalType": "address",
          "name": "",
          "type": "address"
        },
        {
          "internalType": "uint256",
          "name": "",
          "type": "uint256"
        }
      ],
      "name": "notes",
      "outputs": [
        {
          "internalType": "contract InvestmentNote",
          "name": "",
          "type": "address"
        }
      ],
      "stateMutability": "view",
      "type": "function",
      "constant": true
    },
    {
      "inputs": [
        {
          "internalType": "uint256",
          "name": "_financingAmt",
          "type": "uint256"
        },
        {
          "internalType": "uint256",
          "name": "_Duration",
          "type": "uint256"
        },
        {
          "internalType": "uint256",
          "name": "_repaymentAmt",
          "type": "uint256"
        },
        {
          "internalType": "uint256",
          "name": "_interestRate",
          "type": "uint256"
        }
      ],
      "name": "createNote",
      "outputs": [],
      "stateMutability": "nonpayable",
      "type": "function"
    },
    {
      "inputs": [
        {
          "internalType": "contract InvestmentNote",
          "name": "investmentNote",
          "type": "address"
        },
        {
          "internalType": "uint256",
          "name": "amount",
          "type": "uint256"
        }
      ],
      "name": "investOnNote",
      "outputs": [],
      "stateMutability": "payable",
      "type": "function",
      "payable": true
    },
    {
      "inputs": [
        {
          "internalType": "contract InvestmentNote",
          "name": "investmentNote",
          "type": "address"
        },
        {
          "internalType": "uint256",
          "name": "fundedToDate",
          "type": "uint256"
        }
      ],
      "name": "refundToInvestors",
      "outputs": [],
      "stateMutability": "payable",
      "type": "function",
      "payable": true
    },
    {
      "inputs": [
        {
          "internalType": "contract InvestmentNote",
          "name": "investmentNote",
          "type": "address"
        },
        {
          "internalType": "uint256",
          "name": "repayAmt",
          "type": "uint256"
        }
      ],
      "name": "repayFund",
      "outputs": [],
      "stateMutability": "payable",
      "type": "function",
      "payable": true
    }
  ],
  "bytecode": "0x608060405234801561001057600080fd5b50612b89806100206000396000f3fe6080604052600436106200005c5760003560e01c80631746149f14620000615780633458be70146200008f578063bfcde2e414620000af578063c7107b3414620000cf578063ddabcf4114620000ef578063e0b117ff1462000133575b600080fd5b3480156200006e57600080fd5b506200008d600480360381019062000087919062000daf565b62000177565b005b620000ad6004803603810190620000a7919062000caa565b620005b9565b005b620000cd6004803603810190620000c7919062000caa565b62000732565b005b620000ed6004803603810190620000e7919062000caa565b620008ab565b005b348015620000fc57600080fd5b506200011b600480360381019062000115919062000ceb565b62000a97565b6040516200012a919062000fa3565b60405180910390f35b3480156200014057600080fd5b506200015f600480360381019062000159919062000c69565b62000ad7565b6040516200016e919062000fa3565b60405180910390f35b600033858585856040516200018c9062000be8565b6200019c95949392919062000f46565b604051809103906000f080158015620001b9573d6000803e3d6000fd5b5090506000803373ffffffffffffffffffffffffffffffffffffffff1673ffffffffffffffffffffffffffffffffffffffff168152602001908152602001600020819080600181540180825580915050600190039060005260206000200160009091909190916101000a81548173ffffffffffffffffffffffffffffffffffffffff021916908373ffffffffffffffffffffffffffffffffffffffff1602179055506001819080600181540180825580915050600190039060005260206000200160009091909190916101000a81548173ffffffffffffffffffffffffffffffffffffffff021916908373ffffffffffffffffffffffffffffffffffffffff1602179055508073ffffffffffffffffffffffffffffffffffffffff163373ffffffffffffffffffffffffffffffffffffffff167f621d0fba514b677beb0cbc9a131bca201a892aef0f1a724ea6cf34628efb0bd38373ffffffffffffffffffffffffffffffffffffffff1663ee1edc626040518163ffffffff1660e01b815260040160206040518083038186803b1580156200035457600080fd5b505afa15801562000369573d6000803e3d6000fd5b505050506040513d601f19601f820116820180604052508101906200038f919062000d17565b8473ffffffffffffffffffffffffffffffffffffffff1663ccb309416040518163ffffffff1660e01b815260040160206040518083038186803b158015620003d657600080fd5b505afa158015620003eb573d6000803e3d6000fd5b505050506040513d601f19601f8201168201806040525081019062000411919062000d17565b8573ffffffffffffffffffffffffffffffffffffffff16634a6bfb876040518163ffffffff1660e01b815260040160206040518083038186803b1580156200045857600080fd5b505afa1580156200046d573d6000803e3d6000fd5b505050506040513d601f19601f8201168201806040525081019062000493919062000d17565b8673ffffffffffffffffffffffffffffffffffffffff1663b05f04d36040518163ffffffff1660e01b815260040160206040518083038186803b158015620004da57600080fd5b505afa158015620004ef573d6000803e3d6000fd5b505050506040513d601f19601f8201168201806040525081019062000515919062000d17565b8773ffffffffffffffffffffffffffffffffffffffff16632fc9629b6040518163ffffffff1660e01b815260040160206040518083038186803b1580156200055c57600080fd5b505afa15801562000571573d6000803e3d6000fd5b505050506040513d601f19601f8201168201806040525081019062000597919062000d17565b604051620005aa95949392919062001001565b60405180910390a35050505050565b620005f96040518060400160405280602081526020017f726570617920666163746f72792066756e6374696f6e2074726967676572656481525062000b26565b8173ffffffffffffffffffffffffffffffffffffffff1663590e1ae3826040518263ffffffff1660e01b81526004016000604051808303818588803b1580156200064257600080fd5b505af115801562000657573d6000803e3d6000fd5b50505050506200069c6040518060400160405280600a81526020017f656d6974206576656e740000000000000000000000000000000000000000000081525062000b26565b3373ffffffffffffffffffffffffffffffffffffffff167ff1fc399c7d2824c6bb2c30b442e76142f75ea76231998097096683be7229702a8383604051620006e692919062000f19565b60405180910390a26200072e6040518060400160405280600d81526020017f6576656e7420656d69747465640000000000000000000000000000000000000081525062000b26565b5050565b620007726040518060400160405280602081526020017f726570617920666163746f72792066756e6374696f6e2074726967676572656481525062000b26565b8173ffffffffffffffffffffffffffffffffffffffff1663402d8883826040518263ffffffff1660e01b81526004016000604051808303818588803b158015620007bb57600080fd5b505af1158015620007d0573d6000803e3d6000fd5b5050505050620008156040518060400160405280600a81526020017f656d6974206576656e740000000000000000000000000000000000000000000081525062000b26565b3373ffffffffffffffffffffffffffffffffffffffff167fa0cbb716876fe052a304d6983bdb52fd22398216885b299dee6f100d4acd952483836040516200085f92919062000f19565b60405180910390a2620008a76040518060400160405280600d81526020017f6576656e7420656d69747465640000000000000000000000000000000000000081525062000b26565b5050565b620008eb6040518060400160405280601f81526020017f6e6f746520666163746f72792066756e6374696f6e207472696767657265640081525062000b26565b6000806000808573ffffffffffffffffffffffffffffffffffffffff166303f9c79386336040518363ffffffff1660e01b81526004016200092d919062000e8f565b6080604051808303818588803b1580156200094757600080fd5b505af11580156200095c573d6000803e3d6000fd5b50505050506040513d601f19601f8201168201806040525081019062000983919062000d43565b9350935093509350620009cb6040518060400160405280601181526020017f63616c6c2066756e646564206576656e7400000000000000000000000000000081525062000b26565b7f8ed9f57f3be5622855ecfebda48456dc738f1dd6cbe79b024d9f03969c408df133878787878760405162000a069695949392919062000eac565b60405180910390a162000a4e6040518060400160405280601381526020017f63616c6c206469736275727365206576656e740000000000000000000000000081525062000b26565b801562000a8f577fa5903a15985229203df2bff075340046c8bc65c6a2a04f5e773c16a15a5145dc8460405162000a86919062000fe4565b60405180910390a15b505050505050565b6001818154811062000aa857600080fd5b906000526020600020016000915054906101000a900473ffffffffffffffffffffffffffffffffffffffff1681565b6000602052816000526040600020818154811062000af457600080fd5b906000526020600020016000915091509054906101000a900473ffffffffffffffffffffffffffffffffffffffff1681565b62000bc08160405160240162000b3d919062000fc0565b6040516020818303038152906040527f41304fac000000000000000000000000000000000000000000000000000000007bffffffffffffffffffffffffffffffffffffffffffffffffffffffff19166020820180517bffffffffffffffffffffffffffffffffffffffffffffffffffffffff838183161783525050505062000bc3565b50565b60006a636f6e736f6c652e6c6f6790508151602083016000808383865afa5050505050565b61199080620011c483390190565b60008135905062000c07816200115b565b92915050565b60008151905062000c1e8162001175565b92915050565b60008135905062000c35816200118f565b92915050565b60008135905062000c4c81620011a9565b92915050565b60008151905062000c6381620011a9565b92915050565b6000806040838503121562000c7d57600080fd5b600062000c8d8582860162000bf6565b925050602062000ca08582860162000c3b565b9150509250929050565b6000806040838503121562000cbe57600080fd5b600062000cce8582860162000c24565b925050602062000ce18582860162000c3b565b9150509250929050565b60006020828403121562000cfe57600080fd5b600062000d0e8482850162000c3b565b91505092915050565b60006020828403121562000d2a57600080fd5b600062000d3a8482850162000c52565b91505092915050565b6000806000806080858703121562000d5a57600080fd5b600062000d6a8782880162000c52565b945050602062000d7d8782880162000c52565b935050604062000d908782880162000c52565b925050606062000da38782880162000c0d565b91505092959194509250565b6000806000806080858703121562000dc657600080fd5b600062000dd68782880162000c3b565b945050602062000de98782880162000c3b565b935050604062000dfc8782880162000c3b565b925050606062000e0f8782880162000c3b565b91505092959194509250565b62000e26816200107a565b82525050565b62000e3781620010ec565b82525050565b600062000e4a826200105e565b62000e56818562001069565b935062000e6881856020860162001114565b62000e73816200114a565b840191505092915050565b62000e8981620010e2565b82525050565b600060208201905062000ea6600083018462000e1b565b92915050565b600060c08201905062000ec3600083018962000e1b565b62000ed2602083018862000e1b565b62000ee1604083018762000e7e565b62000ef0606083018662000e7e565b62000eff608083018562000e7e565b62000f0e60a083018462000e7e565b979650505050505050565b600060408201905062000f30600083018562000e1b565b62000f3f602083018462000e7e565b9392505050565b600060a08201905062000f5d600083018862000e1b565b62000f6c602083018762000e7e565b62000f7b604083018662000e7e565b62000f8a606083018562000e7e565b62000f99608083018462000e7e565b9695505050505050565b600060208201905062000fba600083018462000e2c565b92915050565b6000602082019050818103600083015262000fdc818462000e3d565b905092915050565b600060208201905062000ffb600083018462000e7e565b92915050565b600060a08201905062001018600083018862000e7e565b62001027602083018762000e7e565b62001036604083018662000e7e565b62001045606083018562000e7e565b62001054608083018462000e7e565b9695505050505050565b600081519050919050565b600082825260208201905092915050565b60006200108782620010c2565b9050919050565b60006200109b82620010c2565b9050919050565b60008115159050919050565b6000620010bb826200108e565b9050919050565b600073ffffffffffffffffffffffffffffffffffffffff82169050919050565b6000819050919050565b6000620010f98262001100565b9050919050565b60006200110d82620010c2565b9050919050565b60005b838110156200113457808201518184015260208101905062001117565b8381111562001144576000848401525b50505050565b6000601f19601f8301169050919050565b62001166816200107a565b81146200117257600080fd5b50565b6200118081620010a2565b81146200118c57600080fd5b50565b6200119a81620010ae565b8114620011a657600080fd5b50565b620011b481620010e2565b8114620011c057600080fd5b5056fe60806040523480156200001157600080fd5b506040516200199038038062001990833981810160405281019062000037919062000127565b846000806101000a81548173ffffffffffffffffffffffffffffffffffffffff021916908373ffffffffffffffffffffffffffffffffffffffff1602179055504260018190555061012c600154620000909190620001a9565b600281905550836003819055506000600481905550603c83620000b491906200023e565b600581905550600554600254620000cc9190620001a9565b60068190555081600781905550606481620000e8919062000206565b60088190555050505050506200036f565b6000815190506200010a816200033b565b92915050565b600081519050620001218162000355565b92915050565b600080600080600060a086880312156200014057600080fd5b60006200015088828901620000f9565b9550506020620001638882890162000110565b9450506040620001768882890162000110565b9350506060620001898882890162000110565b92505060806200019c8882890162000110565b9150509295509295909350565b6000620001b682620002d3565b9150620001c383620002d3565b9250827fffffffffffffffffffffffffffffffffffffffffffffffffffffffffffffffff03821115620001fb57620001fa620002dd565b5b828201905092915050565b60006200021382620002d3565b91506200022083620002d3565b9250826200023357620002326200030c565b5b828204905092915050565b60006200024b82620002d3565b91506200025883620002d3565b9250817fffffffffffffffffffffffffffffffffffffffffffffffffffffffffffffffff0483118215151615620002945762000293620002dd565b5b828202905092915050565b6000620002ac82620002b3565b9050919050565b600073ffffffffffffffffffffffffffffffffffffffff82169050919050565b6000819050919050565b7f4e487b7100000000000000000000000000000000000000000000000000000000600052601160045260246000fd5b7f4e487b7100000000000000000000000000000000000000000000000000000000600052601260045260246000fd5b62000346816200029f565b81146200035257600080fd5b50565b6200036081620002d3565b81146200036c57600080fd5b50565b611611806200037f6000396000f3fe6080604052600436106100e15760003560e01c80637c3a00fd1161007f578063b05f04d311610059578063b05f04d314610282578063ccb30941146102ad578063ee1edc62146102d8578063f0381b3c14610303576100e8565b80637c3a00fd146101ef57806396b988621461021a57806398319d6e14610257576100e8565b8063402d8883116100bb578063402d8883146101855780634a6bfb871461018f578063590e1ae3146101ba5780637ba61ea5146101c4576100e8565b806303f9c793146100ea5780632fc9629b1461011d5780633feb5f2b14610148576100e8565b366100e857005b005b61010460048036038101906100ff9190610ecc565b61032e565b604051610114949392919061128e565b60405180910390f35b34801561012957600080fd5b506101326105d6565b60405161013f9190611273565b60405180910390f35b34801561015457600080fd5b5061016f600480360381019061016a9190610ef5565b6105dc565b60405161017c9190611176565b60405180910390f35b61018d61061b565b005b34801561019b57600080fd5b506101a4610a09565b6040516101b19190611273565b60405180910390f35b6101c2610a0f565b005b3480156101d057600080fd5b506101d9610bd2565b6040516101e69190611176565b60405180910390f35b3480156101fb57600080fd5b50610204610bf6565b6040516102119190611273565b60405180910390f35b34801561022657600080fd5b50610241600480360381019061023c9190610ecc565b610bfc565b60405161024e9190611273565b60405180910390f35b34801561026357600080fd5b5061026c610c14565b6040516102799190611273565b60405180910390f35b34801561028e57600080fd5b50610297610c1a565b6040516102a49190611273565b60405180910390f35b3480156102b957600080fd5b506102c2610c20565b6040516102cf9190611273565b60405180910390f35b3480156102e457600080fd5b506102ed610c26565b6040516102fa9190611273565b60405180910390f35b34801561030f57600080fd5b50610318610c2c565b6040516103259190611273565b60405180910390f35b600080600080600154421015610379576040517f08c379a0000000000000000000000000000000000000000000000000000000008152600401610370906111f3565b60405180910390fd5b60025442106103bd576040517f08c379a00000000000000000000000000000000000000000000000000000000081526004016103b490611233565b60405180910390fd5b6103fb6040518060400160405280601981526020017f696e766573742066756e6374696f6e2074726967676572656400000000000000815250610c32565b600060045460035461040d91906113d0565b34111561044f576040517f08c379a000000000000000000000000000000000000000000000000000000000815260040161044690611213565b60405180910390fd5b61047060405180606001604052806023815260200161159560239139610c32565b34600960008873ffffffffffffffffffffffffffffffffffffffff1673ffffffffffffffffffffffffffffffffffffffff16815260200190815260200160002060008282546104bf91906112ef565b92505081905550600a869080600181540180825580915050600190039060005260206000200160009091909190916101000a81548173ffffffffffffffffffffffffffffffffffffffff021916908373ffffffffffffffffffffffffffffffffffffffff1602179055506105676040518060400160405280601581526020017f7570646174652066756e64656420746f20646174650000000000000000000000815250610c32565b346004600082825461057991906112ef565b9250508190555060035460045414156105bc57426002819055506005546002546105a391906112ef565b6006819055506105b1610ccb565b600481905550600190505b600454600254600654839450945094509450509193509193565b60075481565b600a81815481106105ec57600080fd5b906000526020600020016000915054906101000a900473ffffffffffffffffffffffffffffffffffffffff1681565b6106596040518060400160405280601881526020017f52657061792066756e6374696f6e207472696767657265640000000000000000815250610c32565b600034905061069c6040518060400160405280601881526020017f76616c75652070617373656420746f207265706179416d740000000000000000815250610c32565b804710156106df576040517f08c379a00000000000000000000000000000000000000000000000000000000081526004016106d6906111b3565b60405180910390fd5b61071d6040518060400160405280601481526020017f62616c616e636520636865636b20706173736564000000000000000000000000815250610c32565b6000805b600a805490508110156108bb5760006003548460096000600a8681548110610772577f4e487b7100000000000000000000000000000000000000000000000000000000600052603260045260246000fd5b9060005260206000200160009054906101000a900473ffffffffffffffffffffffffffffffffffffffff1673ffffffffffffffffffffffffffffffffffffffff1673ffffffffffffffffffffffffffffffffffffffff168152602001908152602001600020546107e29190611376565b6107ec9190611345565b905080836107fa91906112ef565b9250600a8281548110610836577f4e487b7100000000000000000000000000000000000000000000000000000000600052603260045260246000fd5b9060005260206000200160009054906101000a900473ffffffffffffffffffffffffffffffffffffffff1673ffffffffffffffffffffffffffffffffffffffff166108fc829081150290604051600060405180830381858888f193505050501580156108a6573d6000803e3d6000fd5b505080806108b39061147f565b915050610721565b506108fa6040518060400160405280600b81526020017f72657061696420646f6e65000000000000000000000000000000000000000000815250610c32565b600047905060008113156109e25760065442116109bb5760008054906101000a900473ffffffffffffffffffffffffffffffffffffffff1673ffffffffffffffffffffffffffffffffffffffff166108fc829081150290604051600060405180830381858888f19350505050158015610977573d6000803e3d6000fd5b506109b66040518060400160405280601181526020017f72657475726e20636f6c6c61746572616c000000000000000000000000000000815250610c32565b6109dd565b6109dc6040518060600160405280602f8152602001611566602f9139610c32565b5b610a04565b610a036040518060600160405280602481526020016115b860249139610c32565b5b505050565b60035481565b600034905080471015610a57576040517f08c379a0000000000000000000000000000000000000000000000000000000008152600401610a4e90611253565b60405180910390fd5b60005b600a80549050811015610bce57600060096000600a8481548110610aa7577f4e487b7100000000000000000000000000000000000000000000000000000000600052603260045260246000fd5b9060005260206000200160009054906101000a900473ffffffffffffffffffffffffffffffffffffffff1673ffffffffffffffffffffffffffffffffffffffff1673ffffffffffffffffffffffffffffffffffffffff168152602001908152602001600020549050600a8281548110610b49577f4e487b7100000000000000000000000000000000000000000000000000000000600052603260045260246000fd5b9060005260206000200160009054906101000a900473ffffffffffffffffffffffffffffffffffffffff1673ffffffffffffffffffffffffffffffffffffffff166108fc829081150290604051600060405180830381858888f19350505050158015610bb9573d6000803e3d6000fd5b50508080610bc69061147f565b915050610a5a565b5050565b60008054906101000a900473ffffffffffffffffffffffffffffffffffffffff1681565b60085481565b60096020528060005260406000206000915090505481565b60015481565b60065481565b60055481565b60025481565b60045481565b610cc881604051602401610c469190611191565b6040516020818303038152906040527f41304fac000000000000000000000000000000000000000000000000000000007bffffffffffffffffffffffffffffffffffffffffffffffffffffffff19166020820180517bffffffffffffffffffffffffffffffffffffffffffffffffffffffff8381831617835250505050610e7d565b50565b6000610d0b6040518060400160405280601a81526020017f6469736275727365206d6574686f64207472696767657265642e000000000000815250610c32565b6003546004541015610d52576040517f08c379a0000000000000000000000000000000000000000000000000000000008152600401610d49906111d3565b60405180910390fd5b610d906040518060400160405280600e81526020017f636f6e646974696f6e2070617373000000000000000000000000000000000000815250610c32565b610dce6040518060400160405280600e81526020017f7472616e73666572207374617274000000000000000000000000000000000000815250610c32565b60008054906101000a900473ffffffffffffffffffffffffffffffffffffffff1673ffffffffffffffffffffffffffffffffffffffff166108fc6004549081150290604051600060405180830381858888f19350505050158015610e36573d6000803e3d6000fd5b50610e756040518060400160405280601a81526020017f7472616e7366657220656e642c2072657475726e2076616c7565000000000000815250610c32565b600454905090565b60006a636f6e736f6c652e6c6f6790508151602083016000808383865afa5050505050565b600081359050610eb181611537565b92915050565b600081359050610ec68161154e565b92915050565b600060208284031215610ede57600080fd5b6000610eec84828501610ea2565b91505092915050565b600060208284031215610f0757600080fd5b6000610f1584828501610eb7565b91505092915050565b610f2781611404565b82525050565b610f3681611416565b82525050565b6000610f47826112d3565b610f5181856112de565b9350610f6181856020860161144c565b610f6a81611526565b840191505092915050565b6000610f82602c836112de565b91507f436f6e747261637420646f6573206e6f74206861766520656e6f75676820667560008301527f6e647320746f20726570617900000000000000000000000000000000000000006020830152604082019050919050565b6000610fe86019836112de565b91507f46756e64696e6720676f616c206e6f7420726561636865642e000000000000006000830152602082019050919050565b6000611028601b836112de565b91507f546865206e6f746520686173206e6f74206c69737465642079657400000000006000830152602082019050919050565b60006110686032836112de565b91507f496e766573746d656e7420616d6f756e74206d757374206e6f7420657863656560008301527f642066696e616e63696e6720616d6f756e7400000000000000000000000000006020830152604082019050919050565b60006110ce601a836112de565b91507f546865206e6f74652068617320656e646564206c697374696e670000000000006000830152602082019050919050565b600061110e602d836112de565b91507f436f6e747261637420646f6573206e6f74206861766520656e6f75676820667560008301527f6e647320746f20726566756e64000000000000000000000000000000000000006020830152604082019050919050565b61117081611442565b82525050565b600060208201905061118b6000830184610f1e565b92915050565b600060208201905081810360008301526111ab8184610f3c565b905092915050565b600060208201905081810360008301526111cc81610f75565b9050919050565b600060208201905081810360008301526111ec81610fdb565b9050919050565b6000602082019050818103600083015261120c8161101b565b9050919050565b6000602082019050818103600083015261122c8161105b565b9050919050565b6000602082019050818103600083015261124c816110c1565b9050919050565b6000602082019050818103600083015261126c81611101565b9050919050565b60006020820190506112886000830184611167565b92915050565b60006080820190506112a36000830187611167565b6112b06020830186611167565b6112bd6040830185611167565b6112ca6060830184610f2d565b95945050505050565b600081519050919050565b600082825260208201905092915050565b60006112fa82611442565b915061130583611442565b9250827fffffffffffffffffffffffffffffffffffffffffffffffffffffffffffffffff0382111561133a576113396114c8565b5b828201905092915050565b600061135082611442565b915061135b83611442565b92508261136b5761136a6114f7565b5b828204905092915050565b600061138182611442565b915061138c83611442565b9250817fffffffffffffffffffffffffffffffffffffffffffffffffffffffffffffffff04831182151516156113c5576113c46114c8565b5b828202905092915050565b60006113db82611442565b91506113e683611442565b9250828210156113f9576113f86114c8565b5b828203905092915050565b600061140f82611422565b9050919050565b60008115159050919050565b600073ffffffffffffffffffffffffffffffffffffffff82169050919050565b6000819050919050565b60005b8381101561146a57808201518184015260208101905061144f565b83811115611479576000848401525b50505050565b600061148a82611442565b91507fffffffffffffffffffffffffffffffffffffffffffffffffffffffffffffffff8214156114bd576114bc6114c8565b5b600182019050919050565b7f4e487b7100000000000000000000000000000000000000000000000000000000600052601160045260246000fd5b7f4e487b7100000000000000000000000000000000000000000000000000000000600052601260045260246000fd5b6000601f19601f8301169050919050565b61154081611404565b811461154b57600080fd5b50565b61155781611442565b811461156257600080fd5b5056fe6c6174652072657061796d656e742c20636f6c6c61746572616c2077696c6c206e6f742062652072657475726e656475706461746520696e766573746f7220616e642074686520696e766573746d656e74736e6f206d6f72652062616c616e636520746f2072657475726e20636f6c6c61746572616ca26469706673582212202a59a3502e206be1f39bc90fa6c53d51bdead9790447ae2e19af71bb10ae72af64736f6c63430008000033a2646970667358221220eac74fa1bdcc2ce5a8ee7de6a43f659c83a17ebb065587e05710b1da45b8eba964736f6c63430008000033",
  "immutableReferences": {},
  "source": "// SPDX-License-Identifier: MIT\r\npragma solidity ^0.8.0;\r\n\r\nimport \"./InvestmentNote.sol\";\r\nimport \"../node_modules/@ganache/console.log/console.sol\";\r\n\r\ncontract NoteFactory{\r\n    // Array to keep track of all notes\r\n    mapping(address => InvestmentNote[]) public notes;\r\n    InvestmentNote[] public allNotes;\r\n\r\n    // Event logging\r\n    event NoteCreated(address indexed owner, address indexed noteAddress, uint256 listedEndDate, uint256 Duration, uint256 financingAmt, uint256 repaymentDate, uint256 repaymentAmt);\r\n    event noteInvested(address investor, address note, uint256 amount, uint256 fundedToDate, uint256 updatedlistedEndDate, uint256 updatedRepaymentDate);\r\n    event fundsDisbursed(uint256 amountToDisburse);\r\n    event refunded(address indexed owner, address note, uint256 fundedToDate);\r\n    event fundRepaid(address indexed owner, address note, uint256 repayAmt);\r\n\r\n    // Create a new investmentNote and store it in the array\r\n    function createNote(\r\n        uint256 _financingAmt,\r\n        uint256 _Duration,\r\n        uint256 _repaymentAmt,\r\n        uint256 _interestRate\r\n    ) public{\r\n        InvestmentNote newNote = new InvestmentNote (msg.sender, _financingAmt, _Duration, _repaymentAmt, _interestRate);\r\n\r\n        // Store the investmentNote in sender's list of notes and the overall list\r\n        notes[msg.sender].push(newNote);\r\n        allNotes.push(newNote);\r\n\r\n        // Emit an event with the relevant info\r\n        emit NoteCreated(\r\n            msg.sender, \r\n            address(newNote),\r\n            newNote.listedEndDate(),\r\n            newNote.Duration(),\r\n            newNote.financingAmt(),\r\n            newNote.repaymentDate(),\r\n            newNote.repaymentAmt()\r\n        );\r\n        \r\n    }\r\n\r\n    // Invest on a specific investmentnote\r\n    function investOnNote(InvestmentNote investmentNote, uint256 amount) public payable {\r\n        console.log(\"note factory function triggered\");\r\n        \r\n        (uint256 updatedFundedToDate, uint256 updatedlistedEndDate, uint256 updatedRepaymentDate, bool disbursed) \r\n        = investmentNote.invest{value: amount}(msg.sender);\r\n\r\n        console.log(\"call funded event\");\r\n\r\n        emit noteInvested(msg.sender, address(investmentNote), amount, \r\n        updatedFundedToDate, updatedlistedEndDate, updatedRepaymentDate);\r\n\r\n        // Check if disburse was called\r\n        console.log(\"call disburse event\");\r\n        if (disbursed) {\r\n            emit fundsDisbursed(updatedFundedToDate);\r\n        }\r\n    }\r\n\r\n    function refundToInvestors(InvestmentNote investmentNote, uint256 fundedToDate) public payable{\r\n        console.log(\"repay factory function triggered\");\r\n        investmentNote.refund{value: fundedToDate}();\r\n        console.log(\"emit event\");\r\n        emit refunded(msg.sender, address(investmentNote), fundedToDate);\r\n        console.log(\"event emitted\");\r\n    }\r\n\r\n    function repayFund(InvestmentNote investmentNote, uint256 repayAmt) public payable{\r\n        console.log(\"repay factory function triggered\");\r\n        investmentNote.repay{value: repayAmt}();\r\n        console.log(\"emit event\");\r\n        emit fundRepaid(msg.sender, address(investmentNote), repayAmt);\r\n        console.log(\"event emitted\");\r\n    }\r\n}",
  "sourcePath": "C:\\Users\\ASUS\\OneDrive - Asia Pacific University\\FYP\\FYP Visual Studio\\Loh Yuen Wei_TP063508_FYP_P2P Lending Platform\\contracts\\NoteFactory.sol",
  "compiler": {
    "name": "solc",
    "version": "0.8.0+commit.c7dfd78e.Emscripten.clang"
  },
  "schemaVersion": "3.4.16",
  "updatedAt": "2024-01-10T08:27:06.935Z",
  "networkType": "ethereum",
  "devdoc": {
    "kind": "dev",
    "methods": {},
    "version": 1
  },
  "userdoc": {
    "kind": "user",
    "methods": {},
    "version": 1
  }
}